{"abi":[{"type":"function","name":"getFeesOwed","inputs":[{"name":"dex","type":"uint8","internalType":"enum DEX"},{"name":"pool","type":"address","internalType":"V3PoolCallee"},{"name":"owner","type":"address","internalType":"address"},{"name":"tickLower","type":"int24","internalType":"int24"},{"name":"tickUpper","type":"int24","internalType":"int24"}],"outputs":[{"name":"tokensOwed0","type":"uint128","internalType":"uint128"},{"name":"tokensOwed1","type":"uint128","internalType":"uint128"}],"stateMutability":"view"},{"type":"function","name":"getTotalAmounts","inputs":[{"name":"dex","type":"uint8","internalType":"enum DEX"},{"name":"pool","type":"address","internalType":"V3PoolCallee"},{"name":"owner","type":"address","internalType":"address"},{"name":"tickLower","type":"int24","internalType":"int24"},{"name":"tickUpper","type":"int24","internalType":"int24"}],"outputs":[{"name":"amount0","type":"uint256","internalType":"uint256"},{"name":"amount1","type":"uint256","internalType":"uint256"}],"stateMutability":"view"}],"bytecode":{"object":"0x60808060405234601557610f3b908161001a8239f35b5f80fdfe60806040526004361015610011575f80fd5b5f3560e01c8063e6f888d8146101dd5763f6e4e2a31461002f575f80fd5b346101d957604061003f3661021b565b85515f958695949093916100a59061009f9061005a816102b2565b73ffffffffffffffffffffffffffffffffffffffff841681528460020b60208201528560020b8b82015260408101516006526020810151600352515f52601a600c2090565b86610789565b946100af816107fd565b50956fffffffffffffffffffffffffffffffff8151166100d9575b89898982519182526020820152f35b6fffffffffffffffffffffffffffffffff985061016c97506100fa84610984565b968961010587610984565b92515f9991169281811882821002908118929118908973ffffffffffffffffffffffffffffffffffffffff808316908416811161017857505050926101568b98969361015c96936101649996610d63565b9561033c565b96169061074f565b93169061074f565b5f8080808080806100ca565b8d9a9b5090849173ffffffffffffffffffffffffffffffffffffffff6101649b989599969a979a1610155f146101c9575096816101bd8261015c999a6101c395610d63565b98610cdc565b9861033c565b97906101c3925061015c97610cdc565b5f80fd5b346101d95760406fffffffffffffffffffffffffffffffff61020a6102013661021b565b9392909261033c565b835191831682529091166020820152f35b7ffffffffffffffffffffffffffffffffffffffffffffffffffffffffffffffffc60a09101126101d95760043560048110156101d9579060243573ffffffffffffffffffffffffffffffffffffffff811681036101d9579060443573ffffffffffffffffffffffffffffffffffffffff811681036101d957906064358060020b81036101d957906084358060020b81036101d95790565b6060810190811067ffffffffffffffff8211176102ce57604052565b7f4e487b71000000000000000000000000000000000000000000000000000000005f52604160045260245ffd5b90601f7fffffffffffffffffffffffffffffffffffffffffffffffffffffffffffffffe0910116810190811067ffffffffffffffff8211176102ce57604052565b91909492935f956103a561039f5f9773ffffffffffffffffffffffffffffffffffffffff6040519661036d886102b2565b16865260020b9384602087015260020b9485604082015260408101516006526020810151600352515f52601a600c2090565b82610789565b926103af826107fd565b9290506fffffffffffffffffffffffffffffffff8551166103d3575b505050505050565b909294965073ffffffffffffffffffffffffffffffffffffffff9193959750169460048110156107225760020361062357604051947ff30dba9300000000000000000000000000000000000000000000000000000000865283600487015261014086602481845afa80156105ea575f965f916105f5575b509591604051947ff30dba9300000000000000000000000000000000000000000000000000000000865281600487015261014086602481865afa80156105ea575f965f916105ac575b5095945b60020b908112156104f457505050916fffffffffffffffffffffffffffffffff93916104e693039403935b836104dd818451169360406020820151910151930384610eae565b16940390610eae565b1690915f80808080806103cb565b949694929392126105215750916fffffffffffffffffffffffffffffffff93916104e693039403936104c2565b9493917ff3058399000000000000000000000000000000000000000000000000000000005f5260205f600481895afa156101d95760045f602093819382510303977f461413190000000000000000000000000000000000000000000000000000000082525afa156101d9576fffffffffffffffffffffffffffffffff926104e6925f510303936104c2565b90506105d19196506101403d81116105e3575b6105c981836102fb565b810190610914565b5050505050989350915050955f610493565b503d6105bf565b6040513d5f823e3d90fd5b90506106119196506101403d81116105e3576105c981836102fb565b5050505050989350915050955f61044a565b604051947ff30dba9300000000000000000000000000000000000000000000000000000000865283600487015261010086602481845afa80156105ea575f965f916106f6575b509591604051947ff30dba9300000000000000000000000000000000000000000000000000000000865281600487015261010086602481865afa80156105ea575f965f916106ba575b509594610497565b90506106df9196506101003d81116106ef575b6106d781836102fb565b8101906108af565b505050509792509050955f6106b2565b503d6106cd565b90506107129196506101003d81116106ef576106d781836102fb565b505050509792509050955f610669565b7f4e487b71000000000000000000000000000000000000000000000000000000005f52602160045260245ffd5b9190820180921161075c57565b7f4e487b71000000000000000000000000000000000000000000000000000000005f52601160045260245ffd5b91909160405160a081019181831067ffffffffffffffff8411176102ce575f60249160a09460405281845281602085015281604085015281606085015281608085015283967f514ea4bf0000000000000000000000000000000000000000000000000000000083526004525afa156101d957565b5f6004816040937f3850c7bd0000000000000000000000000000000000000000000000000000000082525afa156101d9575f519060205190565b51906fffffffffffffffffffffffffffffffff821682036101d957565b519081600f0b82036101d957565b51908160060b82036101d957565b519073ffffffffffffffffffffffffffffffffffffffff821682036101d957565b519063ffffffff821682036101d957565b519081151582036101d957565b9190826101009103126101d9576108c582610837565b916108d260208201610854565b916040820151916060810151916108eb60808301610862565b916108f860a08201610870565b9161091160e061090a60c08501610891565b93016108a2565b90565b9190826101409103126101d95761092a82610837565b9161093760208201610854565b9161094460408301610854565b9160608101519160808201519160a08101519161096360c08301610862565b9161097060e08201610870565b9161091161012061090a6101008501610891565b8060ff1d81810118620d89e88111610cc55763ffffffff91600182167001fffcb933bd6fad37aa2d162d1a59400102700100000000000000000000000000000000189160028116610ca9575b60048116610c8d575b60088116610c71575b60108116610c55575b60208116610c39575b60408116610c1d575b60808116610c01575b6101008116610be5575b6102008116610bc9575b6104008116610bad575b6108008116610b91575b6110008116610b75575b6120008116610b59575b6140008116610b3d575b6180008116610b21575b620100008116610b05575b620200008116610aea575b620400008116610acf575b6208000016610ab6575b5f12610a8f575b0160201c90565b7fffffffffffffffffffffffffffffffffffffffffffffffffffffffffffffffff04610a88565b6b048a170391f7dc42444e8fa290910260801c90610a81565b6d2216e584f5fa1ea926041bedfe9890920260801c91610a77565b916e5d6af8dedb81196699c329225ee6040260801c91610a6c565b916f09aa508b5b7a84e1c677de54f3e99bc90260801c91610a61565b916f31be135f97d08fd981231505542fcfa60260801c91610a56565b916f70d869a156d2a1b890bb3df62baf32f70260801c91610a4c565b916fa9f746462d870fdf8a65dc1f90e061e50260801c91610a42565b916fd097f3bdfd2022b8845ad8f792aa58250260801c91610a38565b916fe7159475a2c29b7443b29c7fa6e889d90260801c91610a2e565b916ff3392b0822b70005940c7a398e4b70f30260801c91610a24565b916ff987a7253ac413176f2b074cf7815e540260801c91610a1a565b916ffcbe86c7900a88aedcffc83b479aa3a40260801c91610a10565b916ffe5dee046a99a2a811c461f1969c30530260801c91610a06565b916fff2ea16466c96a3843ec78b326b528610260801c916109fd565b916fff973b41fa98c081472e6896dfb254c00260801c916109f4565b916fffcb9843d60f6159c9db58835c9266440260801c916109eb565b916fffe5caca7e10e4e61c3624eaa0941cd00260801c916109e2565b916ffff2e50f5f656932ef12357cf3c7fdcc0260801c916109d9565b916ffff97272373d413259a46990580e213a0260801c916109d0565b6308c379a05f52602080526101546041526045601cfd5b73ffffffffffffffffffffffffffffffffffffffff6fffffffffffffffffffffffffffffffff917fffffffffffffffffffffffffffffffffffffffffffffffffffffffffffffffff930316921691808302920981811082019003806c010000000000000000000000001115610d565760a01b9060601c1790565b63ae47f7025f526004601cfd5b917bffffffffffffffffffffffffffffffff0000000000000000000000009060601b169073ffffffffffffffffffffffffffffffffffffffff838203169073ffffffffffffffffffffffffffffffffffffffff8116828402927fffffffffffffffffffffffffffffffffffffffffffffffffffffffffffffffff8186099073ffffffffffffffffffffffffffffffffffffffff83868410870180850394149284821115980994845f031616958684048060030260021880820260020302808202600203028082026002030280820260020302808202600203028091026002030295600188805f030401948193610e82575050610d565773ffffffffffffffffffffffffffffffffffffffff958482030493119003021702915b16900490565b9650965050505050508015610d565773ffffffffffffffffffffffffffffffffffffffff910491610e7c565b90808202917fffffffffffffffffffffffffffffffffffffffffffffffffffffffffffffffff8282099183831084018084039314610f2557827001000000000000000000000000000000001115610d565770010000000000000000000000000000000091099182810360801c9211900360801b1790565b50505060801c9056fea164736f6c634300081e000a","linkReferences":{}},"methodIdentifiers":{"getFeesOwed(uint8,address,address,int24,int24)":"e6f888d8","getTotalAmounts(uint8,address,address,int24,int24)":"f6e4e2a3"},"id":15}