{"abi":[{"type":"constructor","inputs":[{"name":"dex","type":"uint8","internalType":"enum DEX"},{"name":"pool","type":"address","internalType":"V3PoolCallee"},{"name":"keys","type":"tuple[]","internalType":"struct PoolUtils.PositionKey[]","components":[{"name":"owner","type":"address","internalType":"address"},{"name":"tickLower","type":"int24","internalType":"int24"},{"name":"tickUpper","type":"int24","internalType":"int24"}]}],"stateMutability":"payable"},{"type":"function","name":"getPositions","inputs":[{"name":"dex","type":"uint8","internalType":"enum DEX"},{"name":"pool","type":"address","internalType":"V3PoolCallee"},{"name":"keys","type":"tuple[]","internalType":"struct PoolUtils.PositionKey[]","components":[{"name":"owner","type":"address","internalType":"address"},{"name":"tickLower","type":"int24","internalType":"int24"},{"name":"tickUpper","type":"int24","internalType":"int24"}]}],"outputs":[{"name":"slots","type":"tuple[]","internalType":"struct PoolUtils.Slot[]","components":[{"name":"slot","type":"uint256","internalType":"uint256"},{"name":"data","type":"uint256","internalType":"uint256"}]}],"stateMutability":"payable"}],"bytecode":{"object":"0x6080604052610510803803809161001582610112565b6080398060800190606081126100fa5760805160048110156100fa5760a0519161003e8361018c565b60c051936001600160401b0385116100fa5780609f860112156100fa5784608001519161006a8361019d565b956100786040519788610158565b83875260a060606020890195028201019283116100fa5760a001925b8284106100a45750505050610207565b6060608085840301126100fa5760206060916040516100c28161013d565b86516100cd8161018c565b81526100da8388016101b4565b838201526100ea604088016101b4565b6040820152815201930192610094565b5f80fd5b634e487b7160e01b5f52604160045260245ffd5b6080601f91909101601f19168101906001600160401b0382119082101761013857604052565b6100fe565b606081019081106001600160401b0382111761013857604052565b601f909101601f19168101906001600160401b0382119082101761013857604052565b6040519061018a604083610158565b565b6001600160a01b038116036100fa57565b6001600160401b0381116101385760051b60200190565b51908160020b82036100fa57565b60206040818301928281528451809452019201905f5b8181106101e55750505090565b82518051855260209081015181860152604090940193909201916001016101d8565b61021090610417565b918051916102266102218460021b90565b610383565b935f92835b85851061025a5786604051610256816102486020820194856101c2565b03601f198101835282610158565b5190fd5b8461037b600192600461028f6102736102a49a886103ef565b5160408101516006526020810151600352515f52601a600c2090565b91825f528760205260405f20998a938a6104b5565b8051610346906001600160801b03168e6102bc61017b565b918783528a8060801b03166020830152898501916102da86836103ef565b526102e585826103ef565b506103186020850151926102f761017b565b938c8a0185526020850152600287019361031182856103ef565b52826103ef565b506040840151600261032861017b565b980188526020880152600385019661034083836103ef565b526103ef565b506080606082015191015160801b17600361035f61017b565b9b018b5260208b01520197610374828c6103ef565b52896103ef565b50019361022b565b9061038d8261019d565b61039a6040519182610158565b82815280926103ab601f199161019d565b015f5b8181106103ba57505050565b6040805190810191906001600160401b03831181841017610138576020926040525f81525f83820152828286010152016103ae565b80518210156104035760209160051b010190565b634e487b7160e01b5f52603260045260245ffd5b600481101561049b5780156104af57600481101561049b576001146104965760405162461bcd60e51b815260206004820152603260248201527f457068656d6572616c506f6f6c506f736974696f6e733a20696e76616c6964206044820152710dee440eadce6eae0e0dee4e8cac840888ab60731b6064820152608490fd5b600890565b634e487b7160e01b5f52602160045260245ffd5b50600790565b60405191929160a08101916001600160401b03831182841017610138575f60249160a094604052818452816020850152816040850152816060850152816080850152839663514ea4bf60e01b83526004525afa156100fa5756fe","linkReferences":{}},"deployedBytecode":{"object":"0x60806040526004361015610011575f80fd5b5f3560e01c63e165c54a14610024575f80fd5b60607ffffffffffffffffffffffffffffffffffffffffffffffffffffffffffffffffc36011261012c57600435600481101561012c5760243561006681610130565b6044359167ffffffffffffffff831161012c573660238401121561012c57826004013561009a61009582610204565b6101c0565b93602460606020878581520193028201019036821161012c57602401915b8183106100dd576100d96100cd87878761031a565b6040519182918261022a565b0390f35b60608336031261012c5760206060916100f461017b565b85356100ff81610130565b815261010c83870161021c565b8382015261011c6040870161021c565b60408201528152019201916100b8565b5f80fd5b73ffffffffffffffffffffffffffffffffffffffff81160361012c57565b7f4e487b71000000000000000000000000000000000000000000000000000000005f52604160045260245ffd5b604051906060820182811067ffffffffffffffff82111761019b57604052565b61014e565b604051906040820182811067ffffffffffffffff82111761019b57604052565b907fffffffffffffffffffffffffffffffffffffffffffffffffffffffffffffffe0601f604051930116820182811067ffffffffffffffff82111761019b57604052565b67ffffffffffffffff811161019b5760051b60200190565b35908160020b820361012c57565b60206040818301928281528451809452019201905f5b81811061024d5750505090565b8251805185526020908101518186015260409094019390920191600101610240565b9061027c61009583610204565b8281527fffffffffffffffffffffffffffffffffffffffffffffffffffffffffffffffe06102aa8294610204565b01905f5b8281106102ba57505050565b6020906102c56101a0565b5f81525f83820152828285010152016102ae565b80518210156102ed5760209160051b010190565b7f4e487b71000000000000000000000000000000000000000000000000000000005f52603260045260245ffd5b61032690939293610494565b9280519161033c6103378460021b90565b61026f565b945f92835b85851061035057505050505050565b8461048c600192600461038561036961039e9a886102d9565b5160408101516006526020810151600352515f52601a600c2090565b91825f52876020528c61045760405f209b8c958c610570565b916103b983516fffffffffffffffffffffffffffffffff1690565b906fffffffffffffffffffffffffffffffff6103d36101a0565b92888452166020830152898501916103eb86836102d9565b526103f685826102d9565b506104296020850151926104086101a0565b938c8a0185526020850152600287019361042282856102d9565b52826102d9565b50604084015160026104396101a0565b980188526020880152600385019661045183836102d9565b526102d9565b506080606082015191015160801b1760036104706101a0565b9b018b5260208b01520197610485828d6102d9565b528a6102d9565b500193610341565b600481101561053d57801561056a57600481101561053d57600114610538576040517f08c379a000000000000000000000000000000000000000000000000000000000815260206004820152603260248201527f457068656d6572616c506f6f6c506f736974696f6e733a20696e76616c69642060448201527f6f7220756e737570706f727465642044455800000000000000000000000000006064820152608490fd5b600890565b7f4e487b71000000000000000000000000000000000000000000000000000000005f52602160045260245ffd5b50600790565b91909160405160a081019181831067ffffffffffffffff84111761019b575f60249160a09460405281845281602085015281604085015281606085015281608085015283967f514ea4bf0000000000000000000000000000000000000000000000000000000083526004525afa1561012c5756fea164736f6c634300081e000a","linkReferences":{}},"methodIdentifiers":{"getPositions(uint8,address,(address,int24,int24)[])":"e165c54a"},"id":8}