{"abi":[{"type":"constructor","inputs":[{"name":"dex","type":"uint8","internalType":"enum DEX"},{"name":"pool","type":"address","internalType":"V3PoolCallee"},{"name":"tickLower","type":"int24","internalType":"int24"},{"name":"tickUpper","type":"int24","internalType":"int24"}],"stateMutability":"payable"},{"type":"function","name":"getPopulatedTicksInRange","inputs":[{"name":"dex","type":"uint8","internalType":"enum DEX"},{"name":"pool","type":"address","internalType":"V3PoolCallee"},{"name":"tickLower","type":"int24","internalType":"int24"},{"name":"tickUpper","type":"int24","internalType":"int24"}],"outputs":[{"name":"populatedTicks","type":"tuple[]","internalType":"struct PoolUtils.PopulatedTick[]","components":[{"name":"tick","type":"int24","internalType":"int24"},{"name":"liquidityNet","type":"int128","internalType":"int128"},{"name":"liquidityGross","type":"uint128","internalType":"uint128"},{"name":"feeGrowthOutside0X128","type":"uint256","internalType":"uint256"},{"name":"feeGrowthOutside1X128","type":"uint256","internalType":"uint256"}]}],"stateMutability":"payable"}],"bytecode":{"object":"0x608080604052608081610676803803809161001a82856105dc565b83398101031261022b5780519060048210158061022b5760208201516001600160a01b038116929083810361022b57610061606061005a604085016105ff565b93016105ff565b918260020b8160020b1361022b576040516334324e9f60e21b815290602082600481895afa91821561048d575f926105a0575b50815f8183071291050360020b60081d60010b92815f8183071291050360020b60081d60010b945f9560016100c9868361064c565b810b01617fff8113617fff198212176102175761ffff16956100ea8761060d565b966100f860405198896105dc565b808852610107601f199161060d565b0136602089013785975b8860010b83811361022f5763299ce14b60e11b5f5260045260205f602481895afa1561022b575f518061015161ffff61014a8b8e61064c565b168b610624565b527f01010101010101010101010101010101010101010101010101010101010101017f0f0f0f0f0f0f0f0f0f0f0f0f0f0f0f0f0f0f0f0f0f0f0f0f0f0f0f0f0f0f0f0f7f55555555555555555555555555555555555555555555555555555555555555558360011c1683037f3333333333333333333333333333333333333333333333333333333333333333808260021c169116018060041c01160260f81c905f191460081b178101809111610217579760010b617fff81146102175760010197610111565b634e487b7160e01b5f52601160045260245ffd5b5f80fd5b50948987939495896102408961060d565b9861024e6040519a8b6105dc565b808a5261025d601f199161060d565b015f5b81811061055957508690505f5b888860010b131561030d578a60405160208101918160408101916020855280518093526020606083019101925f5b8181106102bb5750506102b7925003601f1981018352826105dc565b5190fd5b91600191935060a060209160808751805160020b835284810151600f0b858401528580831b0360408201511660408401526060810151606084015201516080820152019401910191849293919361029b565b61031d61ffff838a031684610624565b515f5b6101008110610339575050600190970160010b9661026d565b8c6001821b831661034e575b50600101610320565b600184019361035c91610624565b5190808b60081b01870260020b918a838252610545578d9260028a03610498576101409060246040518096819363f30dba9360e01b835260048301525afa801561048d575f935f915f915f916103db575b50916001959160409360808601526060850152600f0b6020840152848060801b03169101525b90508c610345565b9550505050610140833d8211610485575b816103fa61014093836105dc565b8101031261022b5782516001600160801b038116810361022b5761042060208501610667565b61042c60408601610667565b50606085015160808601519560c08101518060060b0361022b5760e08101516001600160a01b0381160361022b5761010081015163ffffffff81160361022b5761012001518015150361022b57919490919060016103ad565b3d91506103ec565b6040513d5f823e3d90fd5b604051935061010084016001600160401b03811185821017610531576040525f845260208401905f82528b6101008660245f604083019481865260608401968288528260808601528260a08601528260c08601528260e086015263f30dba9360e01b83526004525afa1561022b5760019560809351600f0b60208601528680851b039051166040850152516060840152519101526103d3565b634e487b7160e01b5f52604160045260245ffd5b634e487b7160e01b5f52602160045260245ffd5b60405160a0810191906001600160401b03831181841017610531576020828e82956040525f84525f838501525f60408501525f60608501525f608085015201015201610260565b9091506020813d6020116105d4575b816105bc602093836105dc565b8101031261022b576105cd906105ff565b905f610094565b3d91506105af565b601f909101601f19168101906001600160401b0382119082101761053157604052565b51908160020b820361022b57565b6001600160401b0381116105315760051b60200190565b80518210156106385760209160051b010190565b634e487b7160e01b5f52603260045260245ffd5b600191820b910b0390617fff198212617fff83131761021757565b519081600f0b820361022b5756fe","linkReferences":{}},"deployedBytecode":{"object":"0x6080806040526004361015610012575f80fd5b5f3560e01c63fa5b11d414610025575f80fd5b60807ffffffffffffffffffffffffffffffffffffffffffffffffffffffffffffffffc3601126103015760043590600482101580610301576024359173ffffffffffffffffffffffffffffffffffffffff83169283810361030157604435918260020b9283810361030157606435938460020b908186036103015713610301577fd0c93a7c000000000000000000000000000000000000000000000000000000008252602082600481895afa9182156105af575f9261071a575b50815f8183071291050360020b60081d60010b92815f8183071291050360020b60081d60010b945f95600161011486836107f2565b810b017fffffffffffffffffffffffffffffffffffffffffffffffffffffffffffff80008112617fff8213176102d45761ffff16957fffffffffffffffffffffffffffffffffffffffffffffffffffffffffffffffe061018c61017689610799565b986101846040519a8b610758565b808a52610799565b0136602089013785975b8860010b838113610305577f5339c296000000000000000000000000000000000000000000000000000000005f5260045260205f602481895afa15610301575f51806101ef61ffff6101e88b8e6107f2565b168b6107b1565b527fffffffffffffffffffffffffffffffffffffffffffffffffffffffffffffffff7f01010101010101010101010101010101010101010101010101010101010101017f0f0f0f0f0f0f0f0f0f0f0f0f0f0f0f0f0f0f0f0f0f0f0f0f0f0f0f0f0f0f0f0f7f55555555555555555555555555555555555555555555555555555555555555558460011c1684037f3333333333333333333333333333333333333333333333333333333333333333808260021c169116018060041c01160260f81c911460081b1781018091116102d4579760010b617fff81146102d45760010197610196565b7f4e487b71000000000000000000000000000000000000000000000000000000005f52601160045260245ffd5b5f80fd5b50948987939495897fffffffffffffffffffffffffffffffffffffffffffffffffffffffffffffffe061035061033a8b610799565b9a6103486040519c8d610758565b808c52610799565b015f5b8181106106d257508690505f5b888860010b13156103f3578a6040518091602082016020835281518091526020604084019201905f5b818110610397575050500390f35b91935091602060a060019260808751805160020b835284810151600f0b858401526fffffffffffffffffffffffffffffffff60408201511660408401526060810151606084015201516080820152019401910191849392610389565b61040361ffff838a0316846107b1565b515f5b610100811061041f575050600190970160010b96610360565b8c6001821b8316610434575b50600101610406565b6001840193610442916107b1565b5190808b60081b01870260020b918a8382526106a5578d9260028a036105ba57610140906024604051809681937ff30dba9300000000000000000000000000000000000000000000000000000000835260048301525afa80156105af575f935f915f915f916104e5575b50946040926fffffffffffffffffffffffffffffffff9260019760808701526060860152600f0b6020850152169101525b90508c61042b565b9550505050610140833d82116105a7575b816105046101409383610758565b81010312610301578251926fffffffffffffffffffffffffffffffff84168403610301576105346020820161082b565b936105416040830161082b565b5060608201519460808301519260c08101518060060b036103015760e081015173ffffffffffffffffffffffffffffffffffffffff8116036103015761010081015163ffffffff81160361030157610120015180151503610301579094909160406104ac565b3d91506104f6565b6040513d5f823e3d90fd5b9250604051610100810181811067ffffffffffffffff821117610678576040525f815260208101935f85528b6101008360245f604083019481865260608401968288528260808601528260a08601528260c08601528260e08601527ff30dba930000000000000000000000000000000000000000000000000000000083526004525afa15610301576fffffffffffffffffffffffffffffffff60809360019751600f0b602087015251166040850152516060840152519101526104dd565b7f4e487b71000000000000000000000000000000000000000000000000000000005f52604160045260245ffd5b7f4e487b71000000000000000000000000000000000000000000000000000000005f52602160045260245ffd5b6040519060a082019180831067ffffffffffffffff841117610678576020828e82956040525f84525f838501525f60408501525f60608501525f608085015201015201610353565b9091506020813d602011610750575b8161073660209383610758565b8101031261030157518060020b810361030157905f6100df565b3d9150610729565b90601f7fffffffffffffffffffffffffffffffffffffffffffffffffffffffffffffffe0910116810190811067ffffffffffffffff82111761067857604052565b67ffffffffffffffff81116106785760051b60200190565b80518210156107c55760209160051b010190565b7f4e487b71000000000000000000000000000000000000000000000000000000005f52603260045260245ffd5b9060010b9060010b0390617fff82137fffffffffffffffffffffffffffffffffffffffffffffffffffffffffffff80008312176102d457565b519081600f0b82036103015756fea164736f6c634300081e000a","linkReferences":{}},"methodIdentifiers":{"getPopulatedTicksInRange(uint8,address,int24,int24)":"fa5b11d4"},"id":2}