{"abi":[{"type":"function","name":"getFeesOwed","inputs":[{"name":"poolManager","type":"address","internalType":"contract IPoolManager"},{"name":"poolKey","type":"tuple","internalType":"struct PoolKey","components":[{"name":"currency0","type":"address","internalType":"Currency"},{"name":"currency1","type":"address","internalType":"Currency"},{"name":"fee","type":"uint24","internalType":"uint24"},{"name":"tickSpacing","type":"int24","internalType":"int24"},{"name":"hooks","type":"address","internalType":"contract IHooks"}]},{"name":"owner","type":"address","internalType":"address"},{"name":"tickLower","type":"int24","internalType":"int24"},{"name":"tickUpper","type":"int24","internalType":"int24"},{"name":"salt","type":"bytes32","internalType":"bytes32"}],"outputs":[{"name":"tokensOwed0","type":"uint128","internalType":"uint128"},{"name":"tokensOwed1","type":"uint128","internalType":"uint128"}],"stateMutability":"view"},{"type":"function","name":"getTotalAmounts","inputs":[{"name":"pm","type":"address","internalType":"contract IPoolManager"},{"name":"poolKey","type":"tuple","internalType":"struct PoolKey","components":[{"name":"currency0","type":"address","internalType":"Currency"},{"name":"currency1","type":"address","internalType":"Currency"},{"name":"fee","type":"uint24","internalType":"uint24"},{"name":"tickSpacing","type":"int24","internalType":"int24"},{"name":"hooks","type":"address","internalType":"contract IHooks"}]},{"name":"owner","type":"address","internalType":"address"},{"name":"tickLower","type":"int24","internalType":"int24"},{"name":"tickUpper","type":"int24","internalType":"int24"},{"name":"salt","type":"bytes32","internalType":"bytes32"}],"outputs":[{"name":"amount0","type":"uint256","internalType":"uint256"},{"name":"amount1","type":"uint256","internalType":"uint256"}],"stateMutability":"view"}],"bytecode":{"object":"0x60808060405234601557610f5a908161001a8239f35b5f80fdfe60806040526004361015610011575f80fd5b5f3560e01c806332962843146101ce5763dd256f371461002f575f80fd5b346101ca57604061003f3661027d565b905f959295949394505f955f9561009260a0872061008b86868686919392936040519460268601526006850152600384015282525f603a600c8401209281604082015281602082015252565b9087610715565b5050956100a260a08220876107de565b505050966fffffffffffffffffffffffffffffffff81166100cd575b8a8a8a82519182526020820152f35b6fffffffffffffffffffffffffffffffff995061015b98506100ee846108aa565b976100f8866108aa565b5f9981811881831002918218929118908a73ffffffffffffffffffffffffffffffffffffffff8083169084168111610168575050509261014561014b96936101539996938e9b9996610caf565b966103e9565b961690610683565b931690610683565b5f808080808080806100be565b8e9b9c5090849173ffffffffffffffffffffffffffffffffffffffff6101539c99969b98959a979b1610155f146101ba575097816101ae8261014b9a9b6101b495610caf565b99610c28565b996103e9565b98906101b4925061014b98610c28565b5f80fd5b346101ca5760406fffffffffffffffffffffffffffffffff6101fe6101f23661027d565b949390939291926103e9565b835191831682529091166020820152f35b90601f7fffffffffffffffffffffffffffffffffffffffffffffffffffffffffffffffe0910116810190811067ffffffffffffffff82111761025057604052565b7f4e487b71000000000000000000000000000000000000000000000000000000005f52604160045260245ffd5b906101407ffffffffffffffffffffffffffffffffffffffffffffffffffffffffffffffffc8301126101ca5760043573ffffffffffffffffffffffffffffffffffffffff811681036101ca577fffffffffffffffffffffffffffffffffffffffffffffffffffffffffffffffdc60a0919301126101ca5760405160a0810181811067ffffffffffffffff8211176102505760405260243573ffffffffffffffffffffffffffffffffffffffff811681036101ca57815260443573ffffffffffffffffffffffffffffffffffffffff811681036101ca57602082015260643562ffffff811681036101ca5760408201526084358060020b81036101ca57606082015260a43573ffffffffffffffffffffffffffffffffffffffff811681036101ca5760808201529060c43573ffffffffffffffffffffffffffffffffffffffff811681036101ca579060e4358060020b81036101ca5790610104358060020b81036101ca57906101243590565b94959395929091925f965f9660a085209160405192608084019084821067ffffffffffffffff8311176102505761049c6fffffffffffffffffffffffffffffffff9673ffffffffffffffffffffffffffffffffffffffff60609b6104a39560405216968781528960020b8098816020840152838860020b9e8f948560408201520152919392936040519460268601526006850152600384015282525f603a600c8401209281604082015281602082015252565b9084610715565b96919590951696876104bb575b505050505050505050565b90929496989a5060a091939597995020936104d585610c02565b9860018a01809a1161065657604051997f35fd631a000000000000000000000000000000000000000000000000000000008b5260048b0152600260248b01525f8a60448173ffffffffffffffffffffffffffffffffffffffff89165afa91821561064b576105679a5f93610627575b5061056f61055d60406020860151950151958989610dfa565b9c90968989610dfa565b9890976107de565b505060020b9182121590506105c657505050506fffffffffffffffffffffffffffffffff95936105b5959387936105ac93039803975b0384610ecd565b16940390610ecd565b1690915f80808080808080806104b0565b959995939493126105fa5750506fffffffffffffffffffffffffffffffff95936105b5959387936105ac93039803976105a5565b976105b596946105ac936fffffffffffffffffffffffffffffffff9997939a958a960303990303976105a5565b6106449193503d805f833e61063c818361020f565b810190610690565b915f610544565b6040513d5f823e3d90fd5b7f4e487b71000000000000000000000000000000000000000000000000000000005f52601160045260245ffd5b9190820180921161065657565b6020818303126101ca5780519067ffffffffffffffff82116101ca57019080601f830112156101ca5781519167ffffffffffffffff8311610250578260051b90604051936106e1602084018661020f565b84526020808501928201019283116101ca57602001905b8282106107055750505090565b81518152602091820191016106f8565b919061072090610c02565b91600683018093116106565760445f9273ffffffffffffffffffffffffffffffffffffffff94604051906020820192835260408201526040815261076560608261020f565b51902060405194859384927f35fd631a000000000000000000000000000000000000000000000000000000008452600484015260036024840152165afa90811561064b575f916107c4575b506020810151916060604083015192015190565b6107d891503d805f833e61063c818361020f565b5f6107b0565b602090602461080273ffffffffffffffffffffffffffffffffffffffff9594610c02565b60405195869384927f1e2eaeaf0000000000000000000000000000000000000000000000000000000084526004840152165afa91821561064b575f92610876575b5073ffffffffffffffffffffffffffffffffffffffff8216918060a01c60020b9162ffffff808360b81c169260d01c1690565b9091506020813d6020116108a2575b816108926020938361020f565b810103126101ca5751905f610843565b3d9150610885565b8060ff1d81810118620d89e88111610beb5763ffffffff91600182167001fffcb933bd6fad37aa2d162d1a59400102700100000000000000000000000000000000189160028116610bcf575b60048116610bb3575b60088116610b97575b60108116610b7b575b60208116610b5f575b60408116610b43575b60808116610b27575b6101008116610b0b575b6102008116610aef575b6104008116610ad3575b6108008116610ab7575b6110008116610a9b575b6120008116610a7f575b6140008116610a63575b6180008116610a47575b620100008116610a2b575b620200008116610a10575b6204000081166109f5575b62080000166109dc575b5f126109b5575b0160201c90565b7fffffffffffffffffffffffffffffffffffffffffffffffffffffffffffffffff046109ae565b6b048a170391f7dc42444e8fa290910260801c906109a7565b6d2216e584f5fa1ea926041bedfe9890920260801c9161099d565b916e5d6af8dedb81196699c329225ee6040260801c91610992565b916f09aa508b5b7a84e1c677de54f3e99bc90260801c91610987565b916f31be135f97d08fd981231505542fcfa60260801c9161097c565b916f70d869a156d2a1b890bb3df62baf32f70260801c91610972565b916fa9f746462d870fdf8a65dc1f90e061e50260801c91610968565b916fd097f3bdfd2022b8845ad8f792aa58250260801c9161095e565b916fe7159475a2c29b7443b29c7fa6e889d90260801c91610954565b916ff3392b0822b70005940c7a398e4b70f30260801c9161094a565b916ff987a7253ac413176f2b074cf7815e540260801c91610940565b916ffcbe86c7900a88aedcffc83b479aa3a40260801c91610936565b916ffe5dee046a99a2a811c461f1969c30530260801c9161092c565b916fff2ea16466c96a3843ec78b326b528610260801c91610923565b916fff973b41fa98c081472e6896dfb254c00260801c9161091a565b916fffcb9843d60f6159c9db58835c9266440260801c91610911565b916fffe5caca7e10e4e61c3624eaa0941cd00260801c91610908565b916ffff2e50f5f656932ef12357cf3c7fdcc0260801c916108ff565b916ffff97272373d413259a46990580e213a0260801c916108f6565b6308c379a05f52602080526101546041526045601cfd5b604051602081019182526006604082015260408152610c2260608261020f565b51902090565b73ffffffffffffffffffffffffffffffffffffffff6fffffffffffffffffffffffffffffffff917fffffffffffffffffffffffffffffffffffffffffffffffffffffffffffffffff930316921691808302920981811082019003806c010000000000000000000000001115610ca25760a01b9060601c1790565b63ae47f7025f526004601cfd5b917bffffffffffffffffffffffffffffffff0000000000000000000000009060601b169073ffffffffffffffffffffffffffffffffffffffff838203169073ffffffffffffffffffffffffffffffffffffffff8116828402927fffffffffffffffffffffffffffffffffffffffffffffffffffffffffffffffff8186099073ffffffffffffffffffffffffffffffffffffffff83868410870180850394149284821115980994845f031616958684048060030260021880820260020302808202600203028082026002030280820260020302808202600203028091026002030295600188805f030401948193610dce575050610ca25773ffffffffffffffffffffffffffffffffffffffff958482030493119003021702915b16900490565b9650965050505050508015610ca25773ffffffffffffffffffffffffffffffffffffffff910491610dc8565b929190610e0690610c02565b600481018091116106565760405190602082019260020b8352604082015260408152610e3360608261020f565b519020600181018091116106565773ffffffffffffffffffffffffffffffffffffffff9260445f9260405195869384927f35fd631a000000000000000000000000000000000000000000000000000000008452600484015260026024840152165afa91821561064b575f92610eb1575b506040602083015192015190565b610ec69192503d805f833e61063c818361020f565b905f610ea3565b90808202917fffffffffffffffffffffffffffffffffffffffffffffffffffffffffffffffff8282099183831084018084039314610f4457827001000000000000000000000000000000001115610ca25770010000000000000000000000000000000091099182810360801c9211900360801b1790565b50505060801c9056fea164736f6c634300081e000a","linkReferences":{}},"methodIdentifiers":{"getFeesOwed(address,(address,address,uint24,int24,address),address,int24,int24,bytes32)":"32962843","getTotalAmounts(address,(address,address,uint24,int24,address),address,int24,int24,bytes32)":"dd256f37"},"id":16}