{"abi":[{"type":"constructor","inputs":[{"name":"dex","type":"uint8","internalType":"enum DEX"},{"name":"npm","type":"address","internalType":"address"},{"name":"owner","type":"address","internalType":"address"}],"stateMutability":"payable"},{"type":"function","name":"allPositions","inputs":[{"name":"dex","type":"uint8","internalType":"enum DEX"},{"name":"npm","type":"address","internalType":"address"},{"name":"owner","type":"address","internalType":"address"}],"outputs":[{"name":"positions","type":"tuple[]","internalType":"struct PositionState[]","components":[{"name":"tokenId","type":"uint256","internalType":"uint256"},{"name":"owner","type":"address","internalType":"address"},{"name":"position","type":"tuple","internalType":"struct PositionFull","components":[{"name":"nonce","type":"uint96","internalType":"uint96"},{"name":"operator","type":"address","internalType":"address"},{"name":"token0","type":"address","internalType":"address"},{"name":"token1","type":"address","internalType":"address"},{"name":"feeOrTickSpacing","type":"uint24","internalType":"uint24"},{"name":"tickLower","type":"int24","internalType":"int24"},{"name":"tickUpper","type":"int24","internalType":"int24"},{"name":"liquidity","type":"uint128","internalType":"uint128"},{"name":"feeGrowthInside0LastX128","type":"uint256","internalType":"uint256"},{"name":"feeGrowthInside1LastX128","type":"uint256","internalType":"uint256"},{"name":"tokensOwed0","type":"uint128","internalType":"uint128"},{"name":"tokensOwed1","type":"uint128","internalType":"uint128"},{"name":"salt","type":"bytes32","internalType":"bytes32"}]},{"name":"pool","type":"address","internalType":"address"},{"name":"poolFee","type":"uint24","internalType":"uint24"},{"name":"poolTickSpacing","type":"int24","internalType":"int24"},{"name":"slot0","type":"tuple","internalType":"struct Slot0","components":[{"name":"sqrtPriceX96","type":"uint160","internalType":"uint160"},{"name":"tick","type":"int24","internalType":"int24"},{"name":"observationIndex","type":"uint16","internalType":"uint16"},{"name":"observationCardinality","type":"uint16","internalType":"uint16"},{"name":"observationCardinalityNext","type":"uint16","internalType":"uint16"},{"name":"feeProtocol","type":"uint32","internalType":"uint32"},{"name":"unlocked","type":"bool","internalType":"bool"}]},{"name":"activeLiquidity","type":"uint128","internalType":"uint128"},{"name":"decimals0","type":"uint8","internalType":"uint8"},{"name":"decimals1","type":"uint8","internalType":"uint8"}]}],"stateMutability":"payable"}],"bytecode":{"object":"0x608080604052606081610df8803803809161001a8285610be7565b83398101031261069457805190600482101590816106945761004a604061004360208401610c0a565b9201610c0a565b9060018060a01b0381166370a0823160e01b5f528260045260205f602481845afa15610aaf57915f519261007d84610c1e565b9561008b6040519788610be7565b848752601f1961009a86610c1e565b015f5b818110610ab75750506001600160a01b038316936002821493821591905f5b8881106102c3578a60405160208101918160408101916020855280518093526020606083019101925f5b818110610106575050610102925003601f198101835282610be7565b5190fd5b91600191935061038060209160ff610120885180518452868060a01b038682015116868501526101806040820151888060601b038151166040870152888060a01b0388820151166060870152888060a01b036040820151166080870152888060a01b0360608201511660a087015262ffffff60808201511660c087015260a081015160020b60e087015260c081015160020b610100870152888060801b0360e0820151168487015261010081015161014087015283810151610160870152888060801b036101408201511682870152888060801b03610160820151166101a087015201516101c0850152868060a01b036060820151166101e085015262ffffff60808201511661020085015260a081015160020b61022085015260c080820151888060a01b038151166102408701528781015160020b61026087015261ffff60408201511661028087015261ffff6060820151166102a087015261ffff6080820151166102c087015263ffffffff60a0820151166102e087015201511515610300850152868060801b0360e082015116610320850152826101008201511661034085015201511661036082015201940191019184929391936100e6565b632f745c5960e01b5f52816004528060245260205f604481895afa15610aaf575f515f6024528b51821015610a9b578a60208d8460051b010151918a60208401526040830190610180825163133f757160e31b5f528260045260245f8a5afa50835251906107f157851561087f5760808181015162ffffff1690830190815260405163c45a015560e01b81526020816004818d5afa9081156106d6575f9161083e575b50604083810151606085015193519151630b4c774160e11b81526001600160a01b0391821660048201529316602484015262ffffff16604483015260209082908180606481015b03916001600160a01b03165afa9081156106d6575f91610805575b506001600160a01b031660608301525b6060820160018060a01b038151169063ddca3f4360e01b5f5260205f600481855afa15610694575f805162ffffff1660808601526334324e9f60e21b8152602090600481855afa15610694575f805160020b60a0860152630d34328160e11b8152602090600481855afa156106945760018060801b035f511660e085015260e060c085019260045f855192633850c7bd851b82525afa15610694578d6107f1578a6107dd575b60e0830180519091906001600160801b03166104dc575b5050509061012060ff6104d260019594826104ba888060a01b03604084015116610d85565b166101008601526060878060a01b0391015116610d85565b16910152016100bc565b90949392919d5060018060a01b039051169360a082015160020b602060c084015160020b9f51015160020b905f9f8d5f1461070f5760405163f30dba9360e01b8152600481018390529761014089602481845afa80156106d6575f995f916106e1575b5098916040519463f30dba9360e01b865281600487015261014086602481865afa80156106d6575f965f91610698575b5095945b811215610616575050509660ff936105c96104d294610120979460019b039303915b51610100850151888601519460808d901b8d900392831692916105b9910383610da3565b16938b8060801b03930390610da3565b16906101408301906105e98a8060801b03918b8060801b03845116610c35565b16905261016082019061060a898060801b03918a8060801b03845116610c35565b16905293949550610495565b9499949293921261063e57509660ff936105c96104d294610120979460019b03930391610595565b979293949163f305839960e01b5f5260205f6004818c5afa156106945760045f6020938193825103039a634614131960e01b82525afa1561069457600196610120946105c96104d29460ff965f51030391610595565b5f80fd5b90506106bd9196506101403d81116106cf575b6106b58183610be7565b810190610d15565b5050505050989350915050955f61056f565b503d6106ab565b6040513d5f823e3d90fd5b90506106fd9199506101403d81116106cf576106b58183610be7565b50505050509b9350915050985f61053f565b60405163f30dba9360e01b8152600481018390529761010089602481845afa80156106d6575f995f916107b1575b5098916040519463f30dba9360e01b865281600487015261010086602481865afa80156106d6575f965f91610775575b509594610573565b905061079a9196506101003d81116107aa575b6107928183610be7565b810190610cb0565b505050509792509050955f61076d565b503d610788565b90506107cd9199506101003d81116107aa576107928183610be7565b505050509a92509050985f61073d565b5f60a083510152600160c08351015261047e565b634e487b7160e01b5f52602160045260245ffd5b90506020813d8211610836575b8161081f60209383610be7565b810103126106945761083090610c0a565b5f6103c8565b3d9150610812565b90506020813d8211610877575b8161085860209383610be7565b81010312610694576103ad9161086f602092610c0a565b915091610366565b3d915061084b565b5f9b50600187036109af5760808181015162ffffff1690830190815260405163c45a015560e01b81526020816004818d5afa9081156106d6575f9161096e575b50604083810151606085015193519151630b4c774160e11b81526001600160a01b0391821660048201529316602484015262ffffff16604483015260209082908180606481015b03916001600160a01b03165afa9081156106d6575f91610935575b506001600160a01b031660608301526103d8565b90506020813d8211610966575b8161094f60209383610be7565b810103126106945761096090610c0a565b5f610921565b3d9150610942565b90506020813d82116109a7575b8161098860209383610be7565b81010312610694576109069161099f602092610c0a565b9150916108bf565b3d915061097b565b5f9b5088156103d857608081015162ffffff1660020b60a0830190815260405163c45a015560e01b8152906020826004818d5afa9182156106d6575f92610a5e575b506040838101516060850151925191516328af8d0b60e01b81526001600160a01b039182166004820152928116602484015260029190910b6044830152909160209183916064918391165afa9081156106d6575f9161093557506001600160a01b031660608301526103d8565b9091506020813d8211610a93575b81610a7960209383610be7565b8101031261069457610a8c602091610c0a565b91906109f1565b3d9150610a6c565b634e487b7160e01b5f52603260045260245ffd5b3d5f803e3d5ffd5b6040519496949061014082016001600160401b03811183821017610bd35760409081525f8084526020840152516101a081016001600160401b03811182821017610bd3576040525f81525f60208201525f60408201525f60608201525f60808201525f60a08201525f60c08201525f60e08201525f6101008201525f6101208201525f6101408201525f6101608201525f61018082015260408301525f60608301525f60808301525f60a08301526040519160e083019280841060018060401b03851117610bd3576020936040525f81525f848201525f60408201525f60608201525f60808201525f60a08201525f60c082015260c08201525f60e08201525f6101008201525f61012082015282828c0101520195939561009d565b634e487b7160e01b5f52604160045260245ffd5b601f909101601f19168101906001600160401b03821190821017610bd357604052565b51906001600160a01b038216820361069457565b6001600160401b038111610bd35760051b60200190565b6001600160801b039182169082160191908211610c4e57565b634e487b7160e01b5f52601160045260245ffd5b51906001600160801b038216820361069457565b519081600f0b820361069457565b51908160060b820361069457565b519063ffffffff8216820361069457565b5190811515820361069457565b91908261010091031261069457610cc682610c62565b91610cd360208201610c76565b91604082015191606081015191610cec60808301610c84565b91610cf960a08201610c0a565b91610d1260e0610d0b60c08501610c92565b9301610ca3565b90565b91908261014091031261069457610d2b82610c62565b91610d3860208201610c76565b91610d4560408301610c76565b9160608101519160808201519160a081015191610d6460c08301610c84565b91610d7160e08201610c0a565b91610d12610120610d0b6101008501610c92565b6020600481809360125f5263313ce56760e01b82525afa60051b5190565b81810291905f198282099183831084018084039314610dee57600160801b831015610de157600160801b91099182810360801c9211900360801b1790565b63ae47f7025f526004601cfd5b50505060801c9056fe","linkReferences":{}},"deployedBytecode":{"object":"0x60806040526004361015610011575f80fd5b5f3560e01c63559c731714610024575f80fd5b60607ffffffffffffffffffffffffffffffffffffffffffffffffffffffffffffffffc36011261097057600435600481101590816109705760243573ffffffffffffffffffffffffffffffffffffffff8116808203610970576044359373ffffffffffffffffffffffffffffffffffffffff851691828603610970577f70a08231000000000000000000000000000000000000000000000000000000005f528560045260205f602481845afa15610df3575f5193946100e285610f89565b966100f06040519889610f48565b8588527fffffffffffffffffffffffffffffffffffffffffffffffffffffffffffffffe061011d87610f89565b015f5b818110610dfb57505060028214968215915f5b8881106103ae578a6040518091602082016020835281518091526020604084019201905f5b818110610166575050500390f35b91935091602061038060019260ff61012088518051845273ffffffffffffffffffffffffffffffffffffffff86820151168685015261018060408201516bffffffffffffffffffffffff815116604087015273ffffffffffffffffffffffffffffffffffffffff8882015116606087015273ffffffffffffffffffffffffffffffffffffffff604082015116608087015273ffffffffffffffffffffffffffffffffffffffff60608201511660a087015262ffffff60808201511660c087015260a081015160020b60e087015260c081015160020b6101008701526fffffffffffffffffffffffffffffffff60e08201511684870152610100810151610140870152838101516101608701526fffffffffffffffffffffffffffffffff61014082015116828701526fffffffffffffffffffffffffffffffff610160820151166101a087015201516101c085015273ffffffffffffffffffffffffffffffffffffffff6060820151166101e085015262ffffff60808201511661020085015260a081015160020b61022085015260c08082015173ffffffffffffffffffffffffffffffffffffffff8151166102408701528781015160020b61026087015261ffff60408201511661028087015261ffff6060820151166102a087015261ffff6080820151166102c087015263ffffffff60a0820151166102e0870152015115156103008501526fffffffffffffffffffffffffffffffff60e0820151166103208501528261010082015116610340850152015116610360820152019401910191849392610158565b7f2f745c59000000000000000000000000000000000000000000000000000000005f52816004528060245260205f604481895afa15610df3575f515f6024528b51821015610dc6578760208d8460051b010151918a6020840152604083019061018082517f99fbab88000000000000000000000000000000000000000000000000000000005f528260045260245f8a5afa5083525190610afe578515610b765762ffffff608082015116608083019081526040517fc45a01550000000000000000000000000000000000000000000000000000000081526020816004818d5afa9182156109b257610516926020925f91610b59575b506040858101516060870151935191517f1698ee8200000000000000000000000000000000000000000000000000000000815273ffffffffffffffffffffffffffffffffffffffff9182166004820152938116602485015262ffffff909116604484015291938492839182906064820190565b0392165afa80156109b25773ffffffffffffffffffffffffffffffffffffffff915f91610b2b575b501660608301525b6060820173ffffffffffffffffffffffffffffffffffffffff8151167fddca3f43000000000000000000000000000000000000000000000000000000005f5260205f600481845afa156109705762ffffff5f511660808501527fd0c93a7c000000000000000000000000000000000000000000000000000000005f5260205f600481845afa15610970575f5160020b60a08501527f1a686502000000000000000000000000000000000000000000000000000000005f5260205f600481845afa15610970576fffffffffffffffffffffffffffffffff5f511660e085015260e060c085019160045f8451927f3850c7bd0000000000000000000000000000000000000000000000000000000082525afa15610970578a610afe578d9182610aea575b60e08401906fffffffffffffffffffffffffffffffff8251166106d7575b505050509061012060ff6106cd73ffffffffffffffffffffffffffffffffffffffff606086846106be84604060019c9b015116611179565b16610100880152015116611179565b1691015201610133565b73ffffffffffffffffffffffffffffffffffffffff9192969594939c50511660a083015160020b602060c085015160020b9751015160020b965f9d5f146109eb57604051927ff30dba9300000000000000000000000000000000000000000000000000000000845282600485015261014084602481845afa80156109b2575f945f916109bd575b509391604051997ff30dba93000000000000000000000000000000000000000000000000000000008b528160048c01526101408b602481865afa80156109b2575f9b5f91610974575b509a945b811215610873575050506101209460ff946fffffffffffffffffffffffffffffffff6108186106cd968260019d73ffffffffffffffffffffffffffffffffffffffff98606098039203945b5116908361080f6101008801518d8901519303846111b0565b169403906111b0565b16906fffffffffffffffffffffffffffffffff61083d61014085019282845116610fcd565b1690526fffffffffffffffffffffffffffffffff61086361016084019282845116610fcd565b16905295969750508f9350610686565b929392126108c157506101209460ff946fffffffffffffffffffffffffffffffff61081860019b826106cd9873ffffffffffffffffffffffffffffffffffffffff98606098039203946107f6565b97917ff3058399000000000000000000000000000000000000000000000000000000005f5260205f6004818c5afa156109705760045f6020938193825103039a7f461413190000000000000000000000000000000000000000000000000000000082525afa156109705760606101209460ff946fffffffffffffffffffffffffffffffff61081860019b8273ffffffffffffffffffffffffffffffffffffffff976106cd995f510303946107f6565b5f80fd5b9050610999919b506101403d81116109ab575b6109918183610f48565b810190611109565b50505050509d93509150509a5f6107a7565b503d610987565b6040513d5f823e3d90fd5b90506109d99194506101403d81116109ab576109918183610f48565b5050505050969350915050935f61075e565b604051927ff30dba9300000000000000000000000000000000000000000000000000000000845282600485015261010084602481845afa80156109b2575f945f91610abe575b509391604051997ff30dba93000000000000000000000000000000000000000000000000000000008b528160048c01526101008b602481865afa80156109b2575f9b5f91610a82575b509a946107ab565b9050610aa7919b506101003d8111610ab7575b610a9f8183610f48565b8101906110a4565b505050509c925090509a5f610a7a565b503d610a95565b9050610ada9194506101003d8111610ab757610a9f8183610f48565b505050509592509050935f610a31565b5f60a083510152600160c083510152610668565b7f4e487b71000000000000000000000000000000000000000000000000000000005f52602160045260245ffd5b610b4c915060203d8111610b52575b610b448183610f48565b810190610fa1565b5f61053e565b503d610b3a565b610b709150833d8111610b5257610b448183610f48565b5f6104a3565b5f98508b60018803610c9c575062ffffff608082015116608083019081526040517fc45a01550000000000000000000000000000000000000000000000000000000081526020816004818d5afa9182156109b257610c4a926020925f91610b5957506040858101516060870151935191517f1698ee8200000000000000000000000000000000000000000000000000000000815273ffffffffffffffffffffffffffffffffffffffff9182166004820152938116602485015262ffffff909116604484015291938492839182906064820190565b0392165afa80156109b25773ffffffffffffffffffffffffffffffffffffffff915f91610c7e575b50166060830152610546565b610c96915060203d8111610b5257610b448183610f48565b5f610c72565b5f9950156105465762ffffff60808201511660020b60a08301908152604051907fc45a01550000000000000000000000000000000000000000000000000000000082526020826004818d5afa9182156109b2575f92610da4575b50602090606473ffffffffffffffffffffffffffffffffffffffff60408601511673ffffffffffffffffffffffffffffffffffffffff80606088015116935160020b9560405196879586947f28af8d0b000000000000000000000000000000000000000000000000000000008652600486015260248501526044840152165afa80156109b25773ffffffffffffffffffffffffffffffffffffffff915f91610c7e5750166060830152610546565b6020919250610dbf90823d8111610b5257610b448183610f48565b9190610cf6565b7f4e487b71000000000000000000000000000000000000000000000000000000005f52603260045260245ffd5b3d5f803e3d5ffd5b60409897985190610140820182811067ffffffffffffffff821117610f1b576040525f82525f60208301526040516101a0810181811067ffffffffffffffff821117610f1b576040525f81525f60208201525f60408201525f60608201525f60808201525f60a08201525f60c08201525f60e08201525f6101008201525f6101208201525f6101408201525f6101608201525f61018082015260408301525f60608301525f60808301525f60a08301526040519160e083019280841067ffffffffffffffff851117610f1b576020936040525f81525f848201525f60408201525f60608201525f60808201525f60a08201525f60c082015260c08201525f60e08201525f6101008201525f61012082015282828d01015201979697610120565b7f4e487b71000000000000000000000000000000000000000000000000000000005f52604160045260245ffd5b90601f7fffffffffffffffffffffffffffffffffffffffffffffffffffffffffffffffe0910116810190811067ffffffffffffffff821117610f1b57604052565b67ffffffffffffffff8111610f1b5760051b60200190565b90816020910312610970575173ffffffffffffffffffffffffffffffffffffffff811681036109705790565b906fffffffffffffffffffffffffffffffff809116911601906fffffffffffffffffffffffffffffffff8211610fff57565b7f4e487b71000000000000000000000000000000000000000000000000000000005f52601160045260245ffd5b51906fffffffffffffffffffffffffffffffff8216820361097057565b519081600f0b820361097057565b51908160060b820361097057565b519073ffffffffffffffffffffffffffffffffffffffff8216820361097057565b519063ffffffff8216820361097057565b5190811515820361097057565b919082610100910312610970576110ba8261102c565b916110c760208201611049565b916040820151916060810151916110e060808301611057565b916110ed60a08201611065565b9161110660e06110ff60c08501611086565b9301611097565b90565b9190826101409103126109705761111f8261102c565b9161112c60208201611049565b9161113960408301611049565b9160608101519160808201519160a08101519161115860c08301611057565b9161116560e08201611065565b916111066101206110ff6101008501611086565b6020600481809360125f527f313ce5670000000000000000000000000000000000000000000000000000000082525afa60051b5190565b90808202917fffffffffffffffffffffffffffffffffffffffffffffffffffffffffffffffff8282099183831084018084039314611234578270010000000000000000000000000000000011156112275770010000000000000000000000000000000091099182810360801c9211900360801b1790565b63ae47f7025f526004601cfd5b50505060801c9056fea164736f6c634300081e000a","linkReferences":{}},"methodIdentifiers":{"allPositions(uint8,address,address)":"559c7317"},"id":1}