{"abi":[{"type":"constructor","inputs":[{"name":"dex","type":"uint8","internalType":"enum DEX"},{"name":"pool","type":"address","internalType":"V3PoolCallee"},{"name":"tickLower","type":"int24","internalType":"int24"},{"name":"tickUpper","type":"int24","internalType":"int24"}],"stateMutability":"payable"},{"type":"function","name":"getPopulatedTicksInRange","inputs":[{"name":"dex","type":"uint8","internalType":"enum DEX"},{"name":"pool","type":"address","internalType":"V3PoolCallee"},{"name":"tickLower","type":"int24","internalType":"int24"},{"name":"tickUpper","type":"int24","internalType":"int24"}],"outputs":[{"name":"slots","type":"tuple[]","internalType":"struct PoolUtils.Slot[]","components":[{"name":"slot","type":"uint256","internalType":"uint256"},{"name":"data","type":"uint256","internalType":"uint256"}]}],"stateMutability":"payable"}],"bytecode":{"object":"0x608080604052608081610663803803809161001a8285610546565b83398101031261022a57805190600482101561022a5760208101516001600160a01b0381169182820361022a5761005f606061005860408401610569565b9201610569565b908160020b8160020b1361022a576020600494604051958680926334324e9f60e21b82525afa938415610520575f946104e4575b50835f8183071291050360020b60081d60010b90835f8183071291050360020b60081d60010b915f9360016100c884866105b6565b810b01617fff8113617fff198212176102165761ffff16936100e985610577565b946100f76040519687610546565b808652610106601f1991610577565b0136602087013783955b8660010b82811361022e5763299ce14b60e11b5f5260045260205f602481875afa1561022a575f518061015061ffff610149898c6105b6565b168961058e565b527f01010101010101010101010101010101010101010101010101010101010101017f0f0f0f0f0f0f0f0f0f0f0f0f0f0f0f0f0f0f0f0f0f0f0f0f0f0f0f0f0f0f0f0f7f55555555555555555555555555555555555555555555555555555555555555558360011c1683037f3333333333333333333333333333333333333333333333333333333333333333808260021c169116018060041c01160260f81c905f191460081b178101809111610216579560010b617fff81146102165760010195610110565b634e487b7160e01b5f52601160045260245ffd5b5f80fd5b5060021b969395509361024087610577565b9661024e6040519889610546565b80885261025d601f1991610577565b015f5b8181106104c157508690505f5b868860010b13156102e0578860405160208101918160408101916020855280518093526020606083019101925f5b8181106102bb5750506102b7925003601f198101835282610546565b5190fd5b845180518452602090810151818501529094019385935060409092019160010161029b565b6102f061ffff838a03168461058e565b516102fa876105d1565b5f5b610100811061031657505050600190970160010b9661026d565b6001811b8316610329575b6001016102fc565b60405160088c901b82018802949061010081016001600160401b038111828210176104ad575f928f91604052838352602083018481526040840198858a528d60608601878152608087019388855260a08801938985526101008960248c60c083019781895260e084019e8f5263f30dba9360e01b82528560020b6004525afa1561022a575f528a60205260405f209751905160801b179b6040519c6103cd8e61052b565b8d89815260200152600186019c6103e4878961058e565b526103ef868861058e565b50519b6040519c6103ff8e61052b565b8d60018a01815260200152600286019c610419828961058e565b52610424908761058e565b505196604051976104348961052b565b6002880189526020890152600385019b8c98610450828961058e565b5261045b908761058e565b505160f81b905160d81b17905160381b17905166ffffffffffffff1617604051936104858561052b565b600301845260208401526004019661049c9161058e565b526104a7908d61058e565b50610321565b634e487b7160e01b5f52604160045260245ffd5b6020906040516104d08161052b565b5f81525f8382015282828c01015201610260565b9093506020813d602011610518575b8161050060209383610546565b8101031261022a5761051190610569565b925f610093565b3d91506104f3565b6040513d5f823e3d90fd5b604081019081106001600160401b038211176104ad57604052565b601f909101601f19168101906001600160401b038211908210176104ad57604052565b51908160020b820361022a57565b6001600160401b0381116104ad5760051b60200190565b80518210156105a25760209160051b010190565b634e487b7160e01b5f52603260045260245ffd5b600191820b910b0390617fff198212617fff83131761021657565b600481101561064e578015610648576001146106435760405162461bcd60e51b815260206004820152602e60248201527f457068656d6572616c506f6f6c5469636b733a20696e76616c6964206f72207560448201526d0dce6eae0e0dee4e8cac840888ab60931b6064820152608490fd5b600690565b50600590565b634e487b7160e01b5f52602160045260245ffdfe","linkReferences":{}},"deployedBytecode":{"object":"0x6080806040526004361015610012575f80fd5b5f3560e01c63fa5b11d414610025575f80fd5b60807ffffffffffffffffffffffffffffffffffffffffffffffffffffffffffffffffc3601126102fd576004359060048210156102fd5760243573ffffffffffffffffffffffffffffffffffffffff81168082036102fd576044358060020b918282036102fd57606435928360020b908185036102fd57136102fd57846004816020937fd0c93a7c0000000000000000000000000000000000000000000000000000000082525afa93841561062c575f946105ee575b50835f8183071291050360020b60081d60010b90835f8183071291050360020b60081d60010b915f93600161011084866106ed565b810b017fffffffffffffffffffffffffffffffffffffffffffffffffffffffffffff80008112617fff8213176102d05761ffff16937fffffffffffffffffffffffffffffffffffffffffffffffffffffffffffffffe061018861017287610694565b966101806040519889610653565b808852610694565b0136602087013783955b8660010b828113610301577f5339c296000000000000000000000000000000000000000000000000000000005f5260045260205f602481875afa156102fd575f51806101eb61ffff6101e4898c6106ed565b16896106ac565b527fffffffffffffffffffffffffffffffffffffffffffffffffffffffffffffffff7f01010101010101010101010101010101010101010101010101010101010101017f0f0f0f0f0f0f0f0f0f0f0f0f0f0f0f0f0f0f0f0f0f0f0f0f0f0f0f0f0f0f0f0f7f55555555555555555555555555555555555555555555555555555555555555558460011c1684037f3333333333333333333333333333333333333333333333333333333333333333808260021c169116018060041c01160260f81c911460081b1781018091116102d0579560010b617fff81146102d05760010195610192565b7f4e487b71000000000000000000000000000000000000000000000000000000005f52601160045260245ffd5b5f80fd5b5060021b96939550937fffffffffffffffffffffffffffffffffffffffffffffffffffffffffffffffe061034d61033789610694565b986103456040519a8b610653565b808a52610694565b015f5b8181106105cb57508690505f5b868860010b13156103b957886040518091602082016020835281518091526020604084019201905f5b818110610394575050500390f35b8251805185526020908101518186015286955060409094019390920191600101610386565b6103c961ffff838a0316846106ac565b516103d387610726565b5f5b61010081106103ef57505050600190970160010b9661035d565b6001811b8316610402575b6001016103d5565b808b60081b01870293604051610100810181811067ffffffffffffffff82111761059e575f928f91604052838352602083018481526040840198858a528d60608601878152608087019388855260a08801938985526101008960248c60c083019781895260e084019e8f527ff30dba930000000000000000000000000000000000000000000000000000000082528560020b6004525afa156102fd575f528a60205260405f209751905160801b179b6040519c6104be8e610637565b8d89815260200152600186019c6104d587896106ac565b526104e086886106ac565b50519b6040519c6104f08e610637565b8d60018a01815260200152600286019c61050a82896106ac565b5261051590876106ac565b5051966040519761052589610637565b6002880189526020890152600385019b8c9861054182896106ac565b5261054c90876106ac565b505160f81b905160d81b17905160381b17905166ffffffffffffff16176040519361057685610637565b600301845260208401526004019661058d916106ac565b52610598908d6106ac565b506103fa565b7f4e487b71000000000000000000000000000000000000000000000000000000005f52604160045260245ffd5b6020906040516105da81610637565b5f81525f8382015282828c01015201610350565b9093506020813d602011610624575b8161060a60209383610653565b810103126102fd57518060020b81036102fd57925f6100db565b3d91506105fd565b6040513d5f823e3d90fd5b6040810190811067ffffffffffffffff82111761059e57604052565b90601f7fffffffffffffffffffffffffffffffffffffffffffffffffffffffffffffffe0910116810190811067ffffffffffffffff82111761059e57604052565b67ffffffffffffffff811161059e5760051b60200190565b80518210156106c05760209160051b010190565b7f4e487b71000000000000000000000000000000000000000000000000000000005f52603260045260245ffd5b9060010b9060010b0390617fff82137fffffffffffffffffffffffffffffffffffffffffffffffffffffffffffff80008312176102d057565b60048110156107cb5780156107c5576001146107c05760846040517f08c379a000000000000000000000000000000000000000000000000000000000815260206004820152602e60248201527f457068656d6572616c506f6f6c5469636b733a20696e76616c6964206f72207560448201527f6e737570706f72746564204445580000000000000000000000000000000000006064820152fd5b600690565b50600590565b7f4e487b71000000000000000000000000000000000000000000000000000000005f52602160045260245ffdfea164736f6c634300081e000a","linkReferences":{}},"methodIdentifiers":{"getPopulatedTicksInRange(uint8,address,int24,int24)":"fa5b11d4"},"id":11}