{"abi":[{"type":"constructor","inputs":[{"name":"poolManager","type":"address","internalType":"address"},{"name":"poolKey","type":"tuple","internalType":"struct PoolKey","components":[{"name":"currency0","type":"address","internalType":"Currency"},{"name":"currency1","type":"address","internalType":"Currency"},{"name":"fee","type":"uint24","internalType":"uint24"},{"name":"tickSpacing","type":"int24","internalType":"int24"},{"name":"hooks","type":"address","internalType":"contract IHooks"}]},{"name":"tickLower","type":"int24","internalType":"int24"},{"name":"tickUpper","type":"int24","internalType":"int24"}],"stateMutability":"payable"},{"type":"function","name":"getPopulatedTicksInRange","inputs":[{"name":"poolManagerAddr","type":"address","internalType":"address"},{"name":"poolKey","type":"tuple","internalType":"struct PoolKey","components":[{"name":"currency0","type":"address","internalType":"Currency"},{"name":"currency1","type":"address","internalType":"Currency"},{"name":"fee","type":"uint24","internalType":"uint24"},{"name":"tickSpacing","type":"int24","internalType":"int24"},{"name":"hooks","type":"address","internalType":"contract IHooks"}]},{"name":"tickLower","type":"int24","internalType":"int24"},{"name":"tickUpper","type":"int24","internalType":"int24"}],"outputs":[{"name":"populatedTicks","type":"tuple[]","internalType":"struct PoolUtilsV4.PopulatedTick[]","components":[{"name":"tick","type":"int24","internalType":"int24"},{"name":"liquidityNet","type":"int128","internalType":"int128"},{"name":"liquidityGross","type":"uint128","internalType":"uint128"},{"name":"feeGrowthOutside0X128","type":"uint256","internalType":"uint256"},{"name":"feeGrowthOutside1X128","type":"uint256","internalType":"uint256"}]}],"stateMutability":"payable"}],"bytecode":{"object":"0x608080604052806106a7803803809161001882856105e1565b83398101039061010082126102e65760a061003282610604565b92601f1901126102e657604051610048816105b2565b61005460208301610604565b815261006260408301610604565b6020820152606082015162ffffff811681036102e657604082015261008960808301610618565b6060820181815260a08401519093906001600160a01b03811681036102e65760808401526100c560e06100be60c08401610618565b9201610618565b60020b9060020b918183136102e65760020b91825f8183071291050360020b60081d60010b915f8183071291050360020b60081d60010b9360018060a01b0316905f9360016101148388610665565b810b01617fff8113617fff198212176102a95761ffff169361013585610626565b9461014360405196876105e1565b808652610152601f1991610626565b0136602087013782955b8660010b8881136102fd5761017360a08420610680565b600581018091116102a957604051906020820192835260408201526040815261019d6060826105e1565b51902060405190631e2eaeaf60e01b82526004820152602081602481895afa9081156102f2575f916102bd575b50806101e361ffff6101dc888c610665565b168961063d565b527f01010101010101010101010101010101010101010101010101010101010101017f0f0f0f0f0f0f0f0f0f0f0f0f0f0f0f0f0f0f0f0f0f0f0f0f0f0f0f0f0f0f0f0f7f55555555555555555555555555555555555555555555555555555555555555558360011c1683037f3333333333333333333333333333333333333333333333333333333333333333808260021c169116018060041c01160260f81c905f191460081b1781018091116102a9579560010b617fff81146102a9576001019561015c565b634e487b7160e01b5f52601160045260245ffd5b90506020813d82116102ea575b816102d7602093836105e1565b810103126102e657515f6101ca565b5f80fd5b3d91506102ca565b6040513d5f823e3d90fd5b509492879361030b87610626565b9661031960405198896105e1565b808852610328601f1991610626565b015f5b81811061057d5750505f9382945b868660010b13156103d9578860405160208101918160408101916020855280518093526020606083019101925f5b818110610387575050610383925003601f1981018352826105e1565b5190fd5b91600191935060a060209160808751805160020b835284810151600f0b858401528580831b03604082015116604084015260608101516060840152015160808201520194019101918492939193610367565b815160020b906103ef61ffff868903168561063d565b5190915f5b610100811061040e57505050600190950160010b94610339565b6001811b8316610421575b6001016103f4565b61042f60018501948d61063d565b51818a60081b01830260020b80825261044a60a08b20610680565b600481018091116102a9578d915f9160405190602082019283526040820152604081526104786060826105e1565b519020604460405180948193631afeb18d60e11b83526004830152600360248301525afa9081156102f2575f916104e9575b50602080820151604080840151606094850151608080880191909152948601529281901d600f0b918401919091526001600160801b0316910152610419565b90503d805f833e6104fa81836105e1565b8101906020818303126102e6578051906001600160401b0382116102e657019080601f830112156102e65781519061053182610626565b9261053f60405194856105e1565b82845260208085019360051b8201019182116102e657602001915b81831061056d5750604091506104aa9050565b825181526020928301920161055a565b60209060405161058c816105b2565b5f81525f838201525f60408201525f60608201525f608082015282828c0101520161032b565b60a081019081106001600160401b038211176105cd57604052565b634e487b7160e01b5f52604160045260245ffd5b601f909101601f19168101906001600160401b038211908210176105cd57604052565b51906001600160a01b03821682036102e657565b51908160020b82036102e657565b6001600160401b0381116105cd5760051b60200190565b80518210156106515760209160051b010190565b634e487b7160e01b5f52603260045260245ffd5b600191820b910b0390617fff198212617fff8313176102a957565b6040516020810191825260066040820152604081526106a06060826105e1565b5190209056fe","linkReferences":{}},"deployedBytecode":{"object":"0x6080806040526004361015610012575f80fd5b5f3560e01c63f8db80d014610025575f80fd5b6101007ffffffffffffffffffffffffffffffffffffffffffffffffffffffffffffffffc3601126103f0576004359073ffffffffffffffffffffffffffffffffffffffff82168092036103f05760a07fffffffffffffffffffffffffffffffffffffffffffffffffffffffffffffffdc3601126103f0576100a5816106f0565b60243573ffffffffffffffffffffffffffffffffffffffff811681036103f057815260443573ffffffffffffffffffffffffffffffffffffffff811681036103f057602082015260643562ffffff811681036103f0576040820152608435908160020b928383036103f0576060820192835260a43573ffffffffffffffffffffffffffffffffffffffff811681036103f057608083015260c4358060020b8091036103f05760e435908160020b8092036103f0578181136103f057855f8183071291050360020b60081d60010b945f8183071291050360020b60081d60010b935f93600161019383886107d3565b810b017fffffffffffffffffffffffffffffffffffffffffffffffffffffffffffff80008112617fff82131761039a5761ffff16937fffffffffffffffffffffffffffffffffffffffffffffffffffffffffffffffe061020b6101f58761077a565b966102036040519889610739565b80885261077a565b0136602087013782955b8660010b8881136104075761022c60a0842061080c565b6005810180911161039a576040519060208201928352604082015260408152610256606082610739565b519020604051907f1e2eaeaf0000000000000000000000000000000000000000000000000000000082526004820152602081602481895afa9081156103fc575f916103c7575b50806102b561ffff6102ae888c6107d3565b1689610792565b527fffffffffffffffffffffffffffffffffffffffffffffffffffffffffffffffff7f01010101010101010101010101010101010101010101010101010101010101017f0f0f0f0f0f0f0f0f0f0f0f0f0f0f0f0f0f0f0f0f0f0f0f0f0f0f0f0f0f0f0f0f7f55555555555555555555555555555555555555555555555555555555555555558460011c1684037f3333333333333333333333333333333333333333333333333333333333333333808260021c169116018060041c01160260f81c911460081b17810180911161039a579560010b617fff811461039a5760010195610215565b7f4e487b71000000000000000000000000000000000000000000000000000000005f52601160045260245ffd5b90506020813d82116103f4575b816103e160209383610739565b810103126103f057515f61029c565b5f80fd5b3d91506103d4565b6040513d5f823e3d90fd5b50949287937fffffffffffffffffffffffffffffffffffffffffffffffffffffffffffffffe061044f6104398961077a565b986104476040519a8b610739565b808a5261077a565b015f5b8181106106bb5750505f9382945b868660010b13156104f357886040518091602082016020835281518091526020604084019201905f5b818110610497575050500390f35b91935091602060a060019260808751805160020b835284810151600f0b858401526fffffffffffffffffffffffffffffffff60408201511660408401526060810151606084015201516080820152019401910191849392610489565b815160020b9061050961ffff8689031685610792565b5190915f5b610100811061052857505050600190950160010b94610460565b6001811b831661053b575b60010161050e565b61054960018501948d610792565b51818a60081b01830260020b80825261056460a08b2061080c565b6004810180911161039a578d915f916040519060208201928352604082015260408152610592606082610739565b5190206044604051809481937f35fd631a0000000000000000000000000000000000000000000000000000000083526004830152600360248301525afa9081156103fc575f91610626575b509060406fffffffffffffffffffffffffffffffff83602060019695015190606084820151910151608086015260608501528060801d600f0b6020850152169101529050610533565b90503d805f833e6106378183610739565b8101906020818303126103f05780519067ffffffffffffffff82116103f057019080601f830112156103f05781519061066f8261077a565b9261067d6040519485610739565b82845260208085019360051b8201019182116103f057602001915b8183106106ab5750604091506105dd9050565b8251815260209283019201610698565b6020906040516106ca816106f0565b5f81525f838201525f60408201525f60608201525f608082015282828c01015201610452565b60a0810190811067ffffffffffffffff82111761070c57604052565b7f4e487b71000000000000000000000000000000000000000000000000000000005f52604160045260245ffd5b90601f7fffffffffffffffffffffffffffffffffffffffffffffffffffffffffffffffe0910116810190811067ffffffffffffffff82111761070c57604052565b67ffffffffffffffff811161070c5760051b60200190565b80518210156107a65760209160051b010190565b7f4e487b71000000000000000000000000000000000000000000000000000000005f52603260045260245ffd5b9060010b9060010b0390617fff82137fffffffffffffffffffffffffffffffffffffffffffffffffffffffffffff800083121761039a57565b60405160208101918252600660408201526040815261082c606082610739565b5190209056fea164736f6c634300081e000a","linkReferences":{}},"methodIdentifiers":{"getPopulatedTicksInRange(address,(address,address,uint24,int24,address),int24,int24)":"f8db80d0"},"id":3}