{"abi":[{"type":"constructor","inputs":[{"name":"dex","type":"uint8","internalType":"enum DEX"},{"name":"pool","type":"address","internalType":"V3PoolCallee"}],"stateMutability":"payable"},{"type":"function","name":"getTickBitmap","inputs":[{"name":"dex","type":"uint8","internalType":"enum DEX"},{"name":"pool","type":"address","internalType":"V3PoolCallee"}],"outputs":[{"name":"slots","type":"tuple[]","internalType":"struct PoolUtils.Slot[]","components":[{"name":"slot","type":"uint256","internalType":"uint256"},{"name":"data","type":"uint256","internalType":"uint256"}]}],"stateMutability":"payable"}],"bytecode":{"object":"0x608080604052604081610365803803809161001a8285610262565b83398101031261015d57805190600482101561015d5760200151906001600160a01b03821680830361015d576020600491604051928380926334324e9f60e21b82525afa908115610228575f916101ec575b506100a95f82620d89e719071282620d89e719050360020b60081d60010b915f81620d89e8071290620d89e8050360020b60081d60010b926102c4565b9161ffff6001838303810b0116936100c085610285565b946100ce6040519687610262565b8086526100dd601f1991610285565b015f5b8181106101c9575050825b8060010b9083821361016157805f528560205260405f209163299ce14b60e11b5f5260045260205f602481865afa1561015d576101536001925f516040519161013383610233565b8252602082015261ffff878403169061014c828b61029c565b528861029c565b500160010b6100eb565b5f80fd5b8660405160208101918160408101916020855280518093526020606083019101925f5b8181106101a45750506101a0925003601f198101835282610262565b5190fd5b8451805184526020908101518185015290940193859350604090920191600101610184565b6020906040516101d881610233565b5f81525f8382015282828a010152016100e0565b90506020813d602011610220575b8161020760209383610262565b8101031261015d57518060020b810361015d575f61006c565b3d91506101fa565b6040513d5f823e3d90fd5b604081019081106001600160401b0382111761024e57604052565b634e487b7160e01b5f52604160045260245ffd5b601f909101601f19168101906001600160401b0382119082101761024e57604052565b6001600160401b03811161024e5760051b60200190565b80518210156102b05760209160051b010190565b634e487b7160e01b5f52603260045260245ffd5b600481101561035057801561034a576001146103455760405162461bcd60e51b815260206004820152603360248201527f457068656d6572616c506f6f6c5469636b4269746d61703a20696e76616c696460448201527f206f7220756e737570706f7274656420444558000000000000000000000000006064820152608490fd5b600790565b50600690565b634e487b7160e01b5f52602160045260245ffdfe","linkReferences":{}},"deployedBytecode":{"object":"0x6080806040526004361015610012575f80fd5b5f3560e01c63cc4e959e14610025575f80fd5b60407ffffffffffffffffffffffffffffffffffffffffffffffffffffffffffffffffc360112610216576004356004811015610216576024359173ffffffffffffffffffffffffffffffffffffffff831680840361021657816004816020937fd0c93a7c0000000000000000000000000000000000000000000000000000000082525afa9081156102ca575f9161028e575b5061012c5f827ffffffffffffffffffffffffffffffffffffffffffffffffffffffffffff276180712827ffffffffffffffffffffffffffffffffffffffffffffffffffffffffffff27618050360020b60081d60010b915f81620d89e8071290620d89e8050360020b60081d60010b926103b8565b9161ffff6001838303810b0116937fffffffffffffffffffffffffffffffffffffffffffffffffffffffffffffffe061017d6101678761035f565b96610175604051988961031e565b80885261035f565b015f5b81811061026b575050825b8060010b9083821361021a57805f528560205260405f20917f5339c296000000000000000000000000000000000000000000000000000000005f5260045260205f602481865afa156102165761020c6001925f51604051916101ec836102d5565b8252602082015261ffff8784031690610205828b610377565b5288610377565b500160010b61018b565b5f80fd5b866040518091602082016020835281518091526020604084019201905f5b818110610246575050500390f35b8251805185526020908101518186015286955060409094019390920191600101610238565b60209060405161027a816102d5565b5f81525f8382015282828a01015201610180565b90506020813d6020116102c2575b816102a96020938361031e565b8101031261021657518060020b8103610216575f6100b7565b3d915061029c565b6040513d5f823e3d90fd5b6040810190811067ffffffffffffffff8211176102f157604052565b7f4e487b71000000000000000000000000000000000000000000000000000000005f52604160045260245ffd5b90601f7fffffffffffffffffffffffffffffffffffffffffffffffffffffffffffffffe0910116810190811067ffffffffffffffff8211176102f157604052565b67ffffffffffffffff81116102f15760051b60200190565b805182101561038b5760209160051b010190565b7f4e487b71000000000000000000000000000000000000000000000000000000005f52603260045260245ffd5b600481101561045d578015610457576001146104525760846040517f08c379a000000000000000000000000000000000000000000000000000000000815260206004820152603360248201527f457068656d6572616c506f6f6c5469636b4269746d61703a20696e76616c696460448201527f206f7220756e737570706f7274656420444558000000000000000000000000006064820152fd5b600790565b50600690565b7f4e487b71000000000000000000000000000000000000000000000000000000005f52602160045260245ffdfea164736f6c634300081e000a","linkReferences":{}},"methodIdentifiers":{"getTickBitmap(uint8,address)":"cc4e959e"},"id":10}