{"abi":[{"type":"constructor","inputs":[{"name":"dex","type":"uint8","internalType":"enum DEX"},{"name":"pool","type":"address","internalType":"V3PoolCallee"}],"stateMutability":"payable"},{"type":"function","name":"getSlots","inputs":[{"name":"dex","type":"uint8","internalType":"enum DEX"},{"name":"pool","type":"address","internalType":"V3PoolCallee"}],"outputs":[{"name":"slots","type":"tuple[]","internalType":"struct PoolUtils.Slot[]","components":[{"name":"slot","type":"uint256","internalType":"uint256"},{"name":"data","type":"uint256","internalType":"uint256"}]}],"stateMutability":"payable"}],"bytecode":{"object":"0x6080806040526040816107f9803803809161001a82856100e7565b8339810103126100b45780519060048210156100b457602001516001600160a01b03811681036100b45761004d9161010a565b60405160208101918160408101916020855280518093526020606083019101925f5b81811061008f57505061008b925003601f1981018352826100e7565b5190fd5b845180518452602090810151818501529094019385935060409092019160010161006f565b5f80fd5b604081019081106001600160401b038211176100d357604052565b634e487b7160e01b5f52604160045260245ffd5b601f909101601f19168101906001600160401b038211908210176100d357604052565b60048110156106855780610336575060405190633850c7bd60e01b5f5260e08260045f845afa156100b457815190602083015161ffff604085015160608601519560808101519060c060a082015191015160f01b9060e81b179060d81b178660c81b179060b81b17941692610181600585016106bf565b946040519261018f846100b8565b5f845260a01b62ffffff60a01b16171760208201526101ad8461071a565b526101b78361071a565b5063f305839960e01b5f5260205f600481845afa156100b4575f51604051906101df826100b8565b6001825260208201526101f18461073b565b526101fb8361073b565b50634614131960e01b5f5260205f600481845afa156100b4575f5160405190610223826100b8565b6002825260208201526102358461074b565b5261023f8361074b565b506102498161079f565b9060405191610257836100b8565b6003835260801b17602082015261026d8461075b565b526102778361075b565b50630d34328160e11b5f5260205f600481845afa156100b4575f516040519061029f826100b8565b600482526001600160801b031660208201526102ba8461076b565b526102c48361076b565b505f5b8281106102d45750505090565b8061032f6affffffffffffff000000006102f0600194866107c0565b9390604051946102ff866100b8565b60088801865260f81b9060581b179160201b16171760208201526005830190610328828961078b565b528661078b565b50016102c7565b6001146103995760405162461bcd60e51b815260206004820152602e60248201527f457068656d6572616c506f6f6c536c6f74733a20696e76616c6964206f72207560448201526d0dce6eae0e0dee4e8cac840888ab60931b6064820152608490fd5b604051633850c7bd60e01b815260e0816004816001600160a01b0386165afa91821561067a575f925f925f935f955f915f935f956105d0575b5061ffff8816966103e5600689016106bf565b98604051946103f3866100b8565b5f865260d81b9060c81b179060b81b179062ffffff60a01b9060a01b16171760208201526104208661071a565b5261042a8561071a565b5060405191610438836100b8565b6001835260201b17602082015261044e8461073b565b526104588361073b565b5063f305839960e01b5f5260205f600481845afa156100b4575f5160405190610480826100b8565b6002825260208201526104928461074b565b5261049c8361074b565b50634614131960e01b5f5260205f600481845afa156100b4575f51604051906104c4826100b8565b6003825260208201526104d68461075b565b526104e08361075b565b506104ea8161079f565b90604051916104f8836100b8565b6004835260801b17602082015261050e8461076b565b526105188361076b565b50630d34328160e11b5f5260205f600481845afa156100b4575f5160405190610540826100b8565b600582526001600160801b0316602082015261055b8461077b565b526105658361077b565b505f5b8281106105755750505090565b806105c96affffffffffffff00000000610591600194866107c0565b9390604051946105a0866100b8565b60098801865260f81b9060581b179160201b16171760208201526006830190610328828961078b565b5001610568565b96505050505050915060e0813d60e011610672575b816105f260e093836100e7565b810103126100b4578051916001600160a01b03831683036100b4576020820151928360020b84036100b45761062960408401610699565b9061063660608501610699565b9361064360808201610699565b9560a08201519163ffffffff831683036100b45760c001519283151584036100b457909395969192935f6103d2565b3d91506105e5565b6040513d5f823e3d90fd5b634e487b7160e01b5f52602160045260245ffd5b519061ffff821682036100b457565b6001600160401b0381116100d35760051b60200190565b906106c9826106a8565b6106d660405191826100e7565b82815280926106e7601f19916106a8565b01905f5b8281106106f757505050565b602090604051610706816100b8565b5f81525f83820152828285010152016106eb565b8051156107275760200190565b634e487b7160e01b5f52603260045260245ffd5b8051600110156107275760400190565b8051600210156107275760600190565b8051600310156107275760800190565b8051600410156107275760a00190565b8051600510156107275760c00190565b80518210156107275760209160051b010190565b5f600481604093631ad8b03b60e01b82525afa156100b4575f519060205190565b919060809060245f60405195869363252c09d760e01b83526004525afa156100b457815191602081015191606060408301519201519056fe","linkReferences":{}},"deployedBytecode":{"object":"0x60806040526004361015610011575f80fd5b5f3560e01c63742ea77914610024575f80fd5b60407ffffffffffffffffffffffffffffffffffffffffffffffffffffffffffffffffc3601126100d35760043560048110156100d35760243573ffffffffffffffffffffffffffffffffffffffff811681036100d357610083916100d7565b6040518091602082016020835281518091526020604084019201905f5b8181106100ae575050500390f35b82518051855260209081015181860152869550604090940193909201916001016100a0565b5f80fd5b600481101561078f57806103815750604051907f3850c7bd000000000000000000000000000000000000000000000000000000005f5260e08260045f845afa156100d357815190602083015161ffff604085015160608601519560808101519060c060a082015191015160f01b9060e81b179060d81b178660c81b179060b81b179416926101676005850161086d565b9476ffffff00000000000000000000000000000000000000006040519361018d856107bc565b5f855260a01b16171760208201526101a4846108e5565b526101ae836108e5565b507ff3058399000000000000000000000000000000000000000000000000000000005f5260205f600481845afa156100d3575f51604051906101ef826107bc565b6001825260208201526102018461091f565b5261020b8361091f565b507f46141319000000000000000000000000000000000000000000000000000000005f5260205f600481845afa156100d3575f516040519061024c826107bc565b60028252602082015261025e8461092f565b526102688361092f565b5061027281610983565b9060405191610280836107bc565b6003835260801b1760208201526102968461093f565b526102a08361093f565b507f1a686502000000000000000000000000000000000000000000000000000000005f5260205f600481845afa156100d3575f516fffffffffffffffffffffffffffffffff604051916102f2836107bc565b600483521660208201526103058461094f565b5261030f8361094f565b505f5b82811061031f5750505090565b8061037a6affffffffffffff0000000061033b600194866109bd565b93906040519461034a866107bc565b60088801865260f81b9060581b179160201b16171760208201526005830190610373828961096f565b528661096f565b5001610312565b60011461040c5760846040517f08c379a000000000000000000000000000000000000000000000000000000000815260206004820152602e60248201527f457068656d6572616c506f6f6c536c6f74733a20696e76616c6964206f72207560448201527f6e737570706f72746564204445580000000000000000000000000000000000006064820152fd5b6040517f3850c7bd00000000000000000000000000000000000000000000000000000000815260e08160048173ffffffffffffffffffffffffffffffffffffffff86165afa918215610784575f925f925f935f955f915f935f956106cd575b5076ffffff000000000000000000000000000000000000000061ffff89169761049660068a0161086d565b99604051956104a4876107bc565b5f875260d81b9060c81b179060b81b179160a01b16171760208201526104c9866108e5565b526104d3856108e5565b50604051916104e1836107bc565b6001835260201b1760208201526104f78461091f565b526105018361091f565b507ff3058399000000000000000000000000000000000000000000000000000000005f5260205f600481845afa156100d3575f5160405190610542826107bc565b6002825260208201526105548461092f565b5261055e8361092f565b507f46141319000000000000000000000000000000000000000000000000000000005f5260205f600481845afa156100d3575f516040519061059f826107bc565b6003825260208201526105b18461093f565b526105bb8361093f565b506105c581610983565b90604051916105d3836107bc565b6004835260801b1760208201526105e98461094f565b526105f38361094f565b507f1a686502000000000000000000000000000000000000000000000000000000005f5260205f600481845afa156100d3575f516fffffffffffffffffffffffffffffffff60405191610645836107bc565b600583521660208201526106588461095f565b526106628361095f565b505f5b8281106106725750505090565b806106c66affffffffffffff0000000061068e600194866109bd565b93906040519461069d866107bc565b60098801865260f81b9060581b179160201b16171760208201526006830190610373828961096f565b5001610665565b96505050505050915060e0813d60e01161077c575b816106ef60e09383610805565b810103126100d35780519173ffffffffffffffffffffffffffffffffffffffff831683036100d3576020820151928360020b84036100d35761073360408401610846565b9061074060608501610846565b9361074d60808201610846565b9560a08201519163ffffffff831683036100d35760c001519283151584036100d357909395969192935f61046b565b3d91506106e2565b6040513d5f823e3d90fd5b7f4e487b71000000000000000000000000000000000000000000000000000000005f52602160045260245ffd5b6040810190811067ffffffffffffffff8211176107d857604052565b7f4e487b71000000000000000000000000000000000000000000000000000000005f52604160045260245ffd5b90601f7fffffffffffffffffffffffffffffffffffffffffffffffffffffffffffffffe0910116810190811067ffffffffffffffff8211176107d857604052565b519061ffff821682036100d357565b67ffffffffffffffff81116107d85760051b60200190565b9061087782610855565b6108846040519182610805565b8281527fffffffffffffffffffffffffffffffffffffffffffffffffffffffffffffffe06108b28294610855565b01905f5b8281106108c257505050565b6020906040516108d1816107bc565b5f81525f83820152828285010152016108b6565b8051156108f25760200190565b7f4e487b71000000000000000000000000000000000000000000000000000000005f52603260045260245ffd5b8051600110156108f25760400190565b8051600210156108f25760600190565b8051600310156108f25760800190565b8051600410156108f25760a00190565b8051600510156108f25760c00190565b80518210156108f25760209160051b010190565b5f6004816040937f1ad8b03b0000000000000000000000000000000000000000000000000000000082525afa156100d3575f519060205190565b919060809060245f6040519586937f252c09d70000000000000000000000000000000000000000000000000000000083526004525afa156100d357815191602081015191606060408301519201519056fea164736f6c634300081e000a","linkReferences":{}},"methodIdentifiers":{"getSlots(uint8,address)":"742ea779"},"id":9}