{"abi":[{"type":"function","name":"extsload","inputs":[{"name":"slots","type":"bytes32[]","internalType":"bytes32[]"}],"outputs":[{"name":"","type":"bytes32[]","internalType":"bytes32[]"}],"stateMutability":"payable"}],"bytecode":{"object":"0x6080806040523460135760cd908160188239f35b5f80fdfe608060405260043610156010575f80fd5b5f3560e01c63dbd035ff146022575f80fd5b60207ffffffffffffffffffffffffffffffffffffffffffffffffffffffffffffffffc36011260bc5760043567ffffffffffffffff811160bc573660238201121560bc57806004013567ffffffffffffffff811160bc578060051b90366024838501011160bc5760205f526020526040018091602080602460409301925b8335548152019101908281101560b8576020809160a0565b825ff35b5f80fdfea164736f6c634300081e000a","linkReferences":{}},"methodIdentifiers":{"extsload(bytes32[])":"dbd035ff"},"id":12}