{"abi":[{"type":"constructor","inputs":[{"name":"positionManagerAddr","type":"address","internalType":"address"},{"name":"tokenId","type":"uint256","internalType":"uint256"}],"stateMutability":"payable"},{"type":"function","name":"getPosition","inputs":[{"name":"positionManagerAddr","type":"address","internalType":"address"},{"name":"tokenId","type":"uint256","internalType":"uint256"}],"outputs":[{"name":"state","type":"tuple","internalType":"struct PositionState","components":[{"name":"tokenId","type":"uint256","internalType":"uint256"},{"name":"owner","type":"address","internalType":"address"},{"name":"position","type":"tuple","internalType":"struct PositionFull","components":[{"name":"nonce","type":"uint96","internalType":"uint96"},{"name":"operator","type":"address","internalType":"address"},{"name":"token0","type":"address","internalType":"address"},{"name":"token1","type":"address","internalType":"address"},{"name":"feeOrTickSpacing","type":"uint24","internalType":"uint24"},{"name":"tickLower","type":"int24","internalType":"int24"},{"name":"tickUpper","type":"int24","internalType":"int24"},{"name":"liquidity","type":"uint128","internalType":"uint128"},{"name":"feeGrowthInside0LastX128","type":"uint256","internalType":"uint256"},{"name":"feeGrowthInside1LastX128","type":"uint256","internalType":"uint256"},{"name":"tokensOwed0","type":"uint128","internalType":"uint128"},{"name":"tokensOwed1","type":"uint128","internalType":"uint128"},{"name":"salt","type":"bytes32","internalType":"bytes32"}]},{"name":"poolKey","type":"tuple","internalType":"struct PoolKey","components":[{"name":"currency0","type":"address","internalType":"Currency"},{"name":"currency1","type":"address","internalType":"Currency"},{"name":"fee","type":"uint24","internalType":"uint24"},{"name":"tickSpacing","type":"int24","internalType":"int24"},{"name":"hooks","type":"address","internalType":"contract IHooks"}]},{"name":"poolFee","type":"uint24","internalType":"uint24"},{"name":"poolTickSpacing","type":"int24","internalType":"int24"},{"name":"slot0","type":"tuple","internalType":"struct Slot0","components":[{"name":"sqrtPriceX96","type":"uint160","internalType":"uint160"},{"name":"tick","type":"int24","internalType":"int24"},{"name":"observationIndex","type":"uint16","internalType":"uint16"},{"name":"observationCardinality","type":"uint16","internalType":"uint16"},{"name":"observationCardinalityNext","type":"uint16","internalType":"uint16"},{"name":"feeProtocol","type":"uint32","internalType":"uint32"},{"name":"unlocked","type":"bool","internalType":"bool"}]},{"name":"activeLiquidity","type":"uint128","internalType":"uint128"},{"name":"decimals0","type":"uint8","internalType":"uint8"},{"name":"decimals1","type":"uint8","internalType":"uint8"}]}],"stateMutability":"payable"}],"bytecode":{"object":"0x608080604052604081610e54803803809161001a82856107c9565b83398101031261071257602061002f826107ec565b910151604051919061014083016001600160401b0381118482101761077f576040525f835260208301915f8352604084016040516101a0810181811060018060401b0382111761077f576040525f81525f60208201525f60408201525f60608201525f60808201525f60a08201525f60c08201525f60e08201525f6101008201525f6101208201525f6101408201525f6101608201525f6101808201528152606085016040516100de81610793565b5f81525f60208201525f60408201525f60608201525f60808201528152608086015f815260a08701905f825260c088019260405160e0810181811060018060401b0382111761077f576040525f81525f60208201525f60408201525f60608201525f60808201525f60a08201525f60c0820152845260e08901945f86526101008a01965f88526101208b01985f8a526101788c82846108a8565b50825160405163dc4c90d360e01b81526001600160a01b0390931692602081600481875afa9081156106c9575f91610750575b50604051637ba03aad60e01b8152600481018490529260c084602481885afa9384156106c9578f905f9561071e575b505262ffffff6080830151168752828652606083015160020b885261020160a08420610d29565b91600383018093116106d457604051631e2eaeaf60e01b815260048101939093526001600160a01b03821692602081602481875afa9081156106c9575f916106e8575b506001600160801b03168b5260a0842062ffffff906102639084610c6c565b50918d519060018060a01b0316905260208d51019060020b90521660a08b51015260a0842061031d60a0830191610316835160020b9860c08601998a5160020b61018088015191604051936102b7856107ae565b845260208401526040830152606082015260018060a01b03815116602082015160020b6060604084015160020b930151926040519360268501526006840152600383015281525f603a600c830120918160408201528160208201525290565b9085610bc6565b95915060e084019260018060801b03845116610592575b5050855160209096015161036997506001600160a01b03908116961694505050821515915061057f9050575060128952610d0b565b60ff1688526040519860208a019a518b52600160a01b6001900390511660408a015251600160601b6001900381511660608a0152600160a01b6001900360208201511660808a0152600160a01b6001900360408201511660a08a0152600160a01b6001900360608201511660c08a0152608081015162ffffff1660e08a015260a081015160020b6101008a015260c081015160020b6101208a0152600160801b6001900360e0820151166101408a01526101008101516101608a01526101208101516101808a0152600160801b60019003610140820151166101a08a0152600160801b60019003610160820151166101c08a015261018001516101e089015251600160a01b60019003815116610200890152600160a01b60019003602082015116610220890152604081015162ffffff16610240890152606081015160020b610260890152600160a01b600190039060800151166102808801525162ffffff166102a08701525160020b6102c086015251600160a01b600190038151166102e0860152602081015160020b610300860152604081015161ffff16610320860152606081015161ffff16610340860152608081015161ffff1661036086015260a081015163ffffffff1661038086015260c0015115156103a0850152600160801b600190039051166103c08401525160ff166103e08301525160ff16610400820152610400815261057b610420826107c9565b5190fd5b61058a60ff91610d0b565b168952610d0b565b5160020b975160020b60a088206105a881610d29565b600181018091116106d4575f90604460405180978193631afeb18d60e11b83526004830152600260248301525afa9687156106c9576103699a61016098610666965f916106a7575b506040602082015191015190610607838686610d4f565b969093610620610618838989610d4f565b989097610c6c565b505060020b91821215905061067c5750505050906106549291039203945b516001600160801b039081169390920383610dff565b16956001600160801b03930390610dff565b169261014082015201525f808080808080610334565b929694921261069557506106549394500392039461063e565b9161065494939203039303039461063e565b6106c391503d805f833e6106bb81836107c9565b810190610b43565b5f6105f0565b6040513d5f823e3d90fd5b634e487b7160e01b5f52601160045260245ffd5b90506020813d602011610716575b81610703602093836107c9565b8101031261071257515f610244565b5f80fd5b3d91506106f6565b61074191955060c03d60c011610749575b61073981836107c9565b81019061081f565b50935f6101da565b503d61072f565b610772915060203d602011610778575b61076a81836107c9565b810190610800565b5f6101ab565b503d610760565b634e487b7160e01b5f52604160045260245ffd5b60a081019081106001600160401b0382111761077f57604052565b608081019081106001600160401b0382111761077f57604052565b601f909101601f19168101906001600160401b0382119082101761077f57604052565b51906001600160a01b038216820361071257565b9081602091031261071257516001600160a01b03811681036107125790565b8092910360c081126107125760a0136107125760405161083e81610793565b610847836107ec565b8152610855602084016107ec565b6020820152604083015162ffffff8116810361071257604082015260608301518060020b81036107125760608201526080830151906001600160a01b03821682036107125760a091608082015292015190565b604080840151905163dc4c90d360e01b815292939290916001600160a01b0316602082600481845afa9182156106c9575f92610b22575b50604051637ba03aad60e01b81526004810186905260c081602481855afa9485156106c9575f915f96610aff575b506040516331a9108f60e11b815260048101889052602081602481875afa5f9181610ac3575b506109445750505050505050505f90565b6020886024986109d5839860a088206109cf8460081c60020b94871c60020b9560405190610971826107ae565b8c825288820187905260408083018990526060830182905282516020938401518251602681019490945260028b810b60068601520b60038401526001600160a01b03168252603a600c8301205f918301829052928201819052905290565b91610bc6565b6001600160a01b03968716959097019490945260a08a019190915260c08901919091526001600160801b031660e088015261010087015261012086019190915260408281015162ffffff1660808701528251821681870152918401511660608501525f61014085018190526101608501525163020604bf60e21b81526004810186905293849182905afa80156106c9575f90610a88575b6001600160a01b03166020820152610180019190915250600190565b506020823d602011610abb575b81610aa2602093836107c9565b8101031261071257610ab6610180926107ec565b610a6c565b3d9150610a95565b9091506020813d602011610af7575b81610adf602093836107c9565b8101031261071257610af0906107ec565b905f610933565b3d9150610ad2565b909550610b1b915060c03d60c0116107495761073981836107c9565b945f61090d565b610b3c91925060203d6020116107785761076a81836107c9565b905f6108df565b602081830312610712578051906001600160401b03821161071257019080601f83011215610712578151916001600160401b03831161077f578260051b9060405193610b9260208401866107c9565b845260208085019282010192831161071257602001905b828210610bb65750505090565b8151815260209182019101610ba9565b9190610bd190610d29565b90600682018092116106d4575f916040519060208201928352604082015260408152610bfe6060826107c9565b519020604051631afeb18d60e11b815260048101919091526003602482015291829060449082906001600160a01b03165afa9081156106c9575f91610c52575b506020810151916060604083015192015190565b610c6691503d805f833e6106bb81836107c9565b5f610c3e565b9190610c79602091610d29565b604051631e2eaeaf60e01b8152600481019190915292839060249082906001600160a01b03165afa9182156106c9575f92610cd7575b506001600160a01b0382169160a081901c60020b9162ffffff60b883901c81169260d01c1690565b9091506020813d602011610d03575b81610cf3602093836107c9565b810103126107125751905f610caf565b3d9150610ce6565b6020600481809360125f5263313ce56760e01b82525afa60051b5190565b604051602081019182526006604082015260408152610d496060826107c9565b51902090565b929190610d5b90610d29565b600481018091116106d45760405190602082019260020b8352604082015260408152610d886060826107c9565b519020600181018091116106d457604051631afeb18d60e11b8152600481019190915260026024820152915f90839060449082906001600160a01b03165afa9182156106c9575f92610de3575b506040602083015192015190565b610df89192503d805f833e6106bb81836107c9565b905f610dd5565b81810291905f198282099183831084018084039314610e4a57600160801b831015610e3d57600160801b91099182810360801c9211900360801b1790565b63ae47f7025f526004601cfd5b50505060801c9056fe","linkReferences":{}},"deployedBytecode":{"object":"0x6080806040526004361015610012575f80fd5b5f3560e01c633adbb5af14610025575f80fd5b60407ffffffffffffffffffffffffffffffffffffffffffffffffffffffffffffffffc36011261089a5760043573ffffffffffffffffffffffffffffffffffffffff81169081810361089a5760243590610140840184811067ffffffffffffffff821117610909576040525f8452602084015f8152604085016040516101a0810181811067ffffffffffffffff821117610909576040525f81525f60208201525f60408201525f60608201525f60808201525f60a08201525f60c08201525f60e08201525f6101008201525f6101208201525f6101408201525f6101608201525f61018082015281526060860160405161011e81610936565b5f81525f60208201525f60408201525f60608201525f6080820152815260808701905f825260a08801925f845260c08901946040519860e08a01988a8a1067ffffffffffffffff8b1117610909575f9a8b9a6040528a81528a60208201528a60408201528a60608201528a60808201528a60a08201528a60c082015288526101be8c8260e082019b8d8d5261010083019d8e5261012083019e8f52610a92565b508351604051927fdc4c90d3000000000000000000000000000000000000000000000000000000008452602084600481845afa938415610828575f946108d8575b50604051927f7ba03aad00000000000000000000000000000000000000000000000000000000845280600485015260c084602481855afa938415610828578f905f956108a6575b505262ffffff6080830151168852828752606083015160020b895261026d60a08420611031565b91600383018093116108335773ffffffffffffffffffffffffffffffffffffffff851692604051907f1e2eaeaf0000000000000000000000000000000000000000000000000000000082526004820152602081602481875afa8015610828575f90610860575b6fffffffffffffffffffffffffffffffff9150168c5262ffffff60208c6102fd60a0882089610f2e565b50939173ffffffffffffffffffffffffffffffffffffffff849294519116905251019060020b90521660a08c51015260a08420926103d460a08301946103cd865160020b9560c0860196875160020b610180880151916040519361036085610952565b845260208401526040830152606082015273ffffffffffffffffffffffffffffffffffffffff815116602082015160020b6060604084015160020b930151926040519360268501526006840152600383015281525f603a600c830120918160408201528160208201525290565b9088610e65565b9092915060e08401956fffffffffffffffffffffffffffffffff8751166106c9575b50505050505050610434915073ffffffffffffffffffffffffffffffffffffffff602081835116920151169080155f146106b6575060128a52610ffa565b60ff16895260405199518a525173ffffffffffffffffffffffffffffffffffffffff1660208a01525180516bffffffffffffffffffffffff1660408a0152602081015173ffffffffffffffffffffffffffffffffffffffff1660608a0152604081015173ffffffffffffffffffffffffffffffffffffffff1660808a0152606081015173ffffffffffffffffffffffffffffffffffffffff1660a08a0152608081015162ffffff1660c08a015260a081015160020b60e08a015260c081015160020b6101008a015260e08101516fffffffffffffffffffffffffffffffff166101208a01526101008101516101408a01526101208101516101608a01526101408101516fffffffffffffffffffffffffffffffff166101808a01526101608101516fffffffffffffffffffffffffffffffff166101a08a015261018001516101c089015251805173ffffffffffffffffffffffffffffffffffffffff166101e0890152602081015173ffffffffffffffffffffffffffffffffffffffff16610200890152604081015162ffffff16610220890152606081015160020b6102408901526080015173ffffffffffffffffffffffffffffffffffffffff166102608801525162ffffff166102808701525160020b6102a086015251805173ffffffffffffffffffffffffffffffffffffffff166102c0860152602081015160020b6102e0860152604081015161ffff16610300860152606081015161ffff16610320860152608081015161ffff1661034086015260a081015163ffffffff1661036086015260c001511515610380850152516fffffffffffffffffffffffffffffffff166103a08401525160ff166103c08301525160ff166103e082015261040090f35b6106c160ff91610ffa565b168a52610ffa565b5160020b945160020b9060a08820936106e185611031565b60018101809111610833575f906044604051809781937f35fd631a0000000000000000000000000000000000000000000000000000000083526004830152600260248301525afa948515610828576104349a610160986fffffffffffffffffffffffffffffffff976107b8975f91610806575b50604060208201519101519061076b838686611057565b98909361078461077c838989611057565b989097610f2e565b505060020b9182121590506107ce57505050506107af9288949285920396039a5b511694038461112a565b1696039061112a565b169261014082015201525f8080808080806103f6565b959895939493126107ed5750506107af9288949285920396039a6107a5565b938995939286936107af9699939903039703039a6107a5565b61082291503d805f833e61081a818361096e565b810190610de0565b5f610754565b6040513d5f823e3d90fd5b7f4e487b71000000000000000000000000000000000000000000000000000000005f52601160045260245ffd5b506020813d60201161089e575b8161087a6020938361096e565b8101031261089a576fffffffffffffffffffffffffffffffff90516102d3565b5f80fd5b3d915061086d565b6108c991955060c03d60c0116108d1575b6108c1818361096e565b8101906109fc565b50935f610246565b503d6108b7565b6108fb91945060203d602011610902575b6108f3818361096e565b8101906109af565b925f6101ff565b503d6108e9565b7f4e487b71000000000000000000000000000000000000000000000000000000005f52604160045260245ffd5b60a0810190811067ffffffffffffffff82111761090957604052565b6080810190811067ffffffffffffffff82111761090957604052565b90601f7fffffffffffffffffffffffffffffffffffffffffffffffffffffffffffffffe0910116810190811067ffffffffffffffff82111761090957604052565b9081602091031261089a575173ffffffffffffffffffffffffffffffffffffffff8116810361089a5790565b519073ffffffffffffffffffffffffffffffffffffffff8216820361089a57565b8092910360c0811261089a5760a01361089a57604051610a1b81610936565b610a24836109db565b8152610a32602084016109db565b6020820152604083015162ffffff8116810361089a57604082015260608301518060020b810361089a57606082015260808301519073ffffffffffffffffffffffffffffffffffffffff8216820361089a5760a091608082015292015190565b60408084015190517fdc4c90d30000000000000000000000000000000000000000000000000000000081529293909173ffffffffffffffffffffffffffffffffffffffff16602084600481845afa938415610828575f94610dbf575b50604051917f7ba03aad00000000000000000000000000000000000000000000000000000000835285600484015260c083602481855afa908115610828575f935f92610d9b575b50604051937f6352211e000000000000000000000000000000000000000000000000000000008552876004860152602085602481875afa5f9581610d5f575b50610b855750505050505050505f90565b602080956fffffffffffffffffffffffffffffffff73ffffffffffffffffffffffffffffffffffffffff8b81978597610c5260249e8c610c4c60a08c20918660081c60020b968c1c60020b9760405191610bde83610952565b8252878d830152886040830152606082015273ffffffffffffffffffffffffffffffffffffffff815116602082015160020b6060604084015160020b930151926040519360268501526006840152600383015281525f603a600c830120918160408201528160208201525290565b91610e65565b98919590971691015260a08c015260c08b01521660e089015261010088015261012087015262ffffff604082015116608087015282815116604087015201511660608401525f6101408401525f610160840152604051938480927f081812fc0000000000000000000000000000000000000000000000000000000082528760048301525afa918215610828575f92610d0c575b5073ffffffffffffffffffffffffffffffffffffffff610180921660208201520152600190565b91506020823d602011610d57575b81610d276020938361096e565b8101031261089a5773ffffffffffffffffffffffffffffffffffffffff610d50610180936109db565b9250610ce5565b3d9150610d1a565b9095506020813d602011610d93575b81610d7b6020938361096e565b8101031261089a57610d8c906109db565b945f610b74565b3d9150610d6e565b909350610db7915060c03d60c0116108d1576108c1818361096e565b90925f610b35565b610dd991945060203d602011610902576108f3818361096e565b925f610aee565b60208183031261089a5780519067ffffffffffffffff821161089a57019080601f8301121561089a5781519167ffffffffffffffff8311610909578260051b9060405193610e31602084018661096e565b845260208085019282010192831161089a57602001905b828210610e555750505090565b8151815260209182019101610e48565b9190610e7090611031565b91600683018093116108335760445f9273ffffffffffffffffffffffffffffffffffffffff946040519060208201928352604082015260408152610eb560608261096e565b51902060405194859384927f35fd631a000000000000000000000000000000000000000000000000000000008452600484015260036024840152165afa908115610828575f91610f14575b506020810151916060604083015192015190565b610f2891503d805f833e61081a818361096e565b5f610f00565b6020906024610f5273ffffffffffffffffffffffffffffffffffffffff9594611031565b60405195869384927f1e2eaeaf0000000000000000000000000000000000000000000000000000000084526004840152165afa918215610828575f92610fc6575b5073ffffffffffffffffffffffffffffffffffffffff8216918060a01c60020b9162ffffff808360b81c169260d01c1690565b9091506020813d602011610ff2575b81610fe26020938361096e565b8101031261089a5751905f610f93565b3d9150610fd5565b6020600481809360125f527f313ce5670000000000000000000000000000000000000000000000000000000082525afa60051b5190565b60405160208101918252600660408201526040815261105160608261096e565b51902090565b92919061106390611031565b600481018091116108335760405190602082019260020b835260408201526040815261109060608261096e565b519020600181018091116108335773ffffffffffffffffffffffffffffffffffffffff9260445f9260405195869384927f35fd631a000000000000000000000000000000000000000000000000000000008452600484015260026024840152165afa918215610828575f9261110e575b506040602083015192015190565b6111239192503d805f833e61081a818361096e565b905f611100565b90808202917fffffffffffffffffffffffffffffffffffffffffffffffffffffffffffffffff82820991838310840180840393146111ae578270010000000000000000000000000000000011156111a15770010000000000000000000000000000000091099182810360801c9211900360801b1790565b63ae47f7025f526004601cfd5b50505060801c9056fea164736f6c634300081e000a","linkReferences":{}},"methodIdentifiers":{"getPosition(address,uint256)":"3adbb5af"},"id":5}