{"abi":[{"type":"constructor","inputs":[{"name":"dex","type":"uint8","internalType":"enum DEX"},{"name":"npm","type":"address","internalType":"address"},{"name":"tokenId","type":"uint256","internalType":"uint256"}],"stateMutability":"payable"},{"type":"function","name":"getPosition","inputs":[{"name":"dex","type":"uint8","internalType":"enum DEX"},{"name":"npm","type":"address","internalType":"address"},{"name":"tokenId","type":"uint256","internalType":"uint256"}],"outputs":[{"name":"state","type":"tuple","internalType":"struct PositionState","components":[{"name":"tokenId","type":"uint256","internalType":"uint256"},{"name":"owner","type":"address","internalType":"address"},{"name":"position","type":"tuple","internalType":"struct PositionFull","components":[{"name":"nonce","type":"uint96","internalType":"uint96"},{"name":"operator","type":"address","internalType":"address"},{"name":"token0","type":"address","internalType":"address"},{"name":"token1","type":"address","internalType":"address"},{"name":"feeOrTickSpacing","type":"uint24","internalType":"uint24"},{"name":"tickLower","type":"int24","internalType":"int24"},{"name":"tickUpper","type":"int24","internalType":"int24"},{"name":"liquidity","type":"uint128","internalType":"uint128"},{"name":"feeGrowthInside0LastX128","type":"uint256","internalType":"uint256"},{"name":"feeGrowthInside1LastX128","type":"uint256","internalType":"uint256"},{"name":"tokensOwed0","type":"uint128","internalType":"uint128"},{"name":"tokensOwed1","type":"uint128","internalType":"uint128"},{"name":"salt","type":"bytes32","internalType":"bytes32"}]},{"name":"pool","type":"address","internalType":"address"},{"name":"poolFee","type":"uint24","internalType":"uint24"},{"name":"poolTickSpacing","type":"int24","internalType":"int24"},{"name":"slot0","type":"tuple","internalType":"struct Slot0","components":[{"name":"sqrtPriceX96","type":"uint160","internalType":"uint160"},{"name":"tick","type":"int24","internalType":"int24"},{"name":"observationIndex","type":"uint16","internalType":"uint16"},{"name":"observationCardinality","type":"uint16","internalType":"uint16"},{"name":"observationCardinalityNext","type":"uint16","internalType":"uint16"},{"name":"feeProtocol","type":"uint32","internalType":"uint32"},{"name":"unlocked","type":"bool","internalType":"bool"}]},{"name":"activeLiquidity","type":"uint128","internalType":"uint128"},{"name":"decimals0","type":"uint8","internalType":"uint8"},{"name":"decimals1","type":"uint8","internalType":"uint8"}]}],"stateMutability":"payable"}],"bytecode":{"object":"0x608080604052606081610cdd803803809161001a8285610ae3565b83398101031261068857805190600482101561068857604061003e60208301610b06565b9101516040519261014084016001600160401b03811185821017610acf576040525f845260208401925f8452604085016040516101a0810181811060018060401b03821117610acf576040525f81525f60208201525f60408201525f60608201525f60808201525f60a08201525f60c08201525f60e08201525f6101008201525f6101208201525f6101408201525f6101608201525f6101808201528152606086015f8152608087015f815260a08801915f835260c089019360405160e0810181811060018060401b03821117610acf576040525f81525f60208201525f60408201525f60608201525f60808201525f60a08201525f60c0820152855260e08a01955f87526101008b01975f89526101208c01995f8b5260018060a01b038316926331a9108f60e11b5f528160045260205f602481875afa15610ac7575f80516001600160a01b03168e52855163133f757160e31b825260048490526101809290916024915afa508c528251915f908261087357602060049162ffffff60808701511689526040519283809263c45a015560e01b82525afa9081156106ca575f91610833575b50604084810151606086015189519251630b4c774160e11b81526001600160a01b0392831660048201529116602482015262ffffff90911660448201529060209082908180606481015b03916001600160a01b03165afa9081156106ca575f916107f9575b506001600160a01b031685525b60018060a01b0385511663ddca3f4360e01b5f5260205f600481845afa15610688575f805162ffffff1688526334324e9f60e21b8152602090600481845afa15610688575f805160020b8952630d34328160e11b8152602090600481845afa15610688575f80516001600160801b03168b528951633850c7bd60e01b825260e09290916004915afa15610688576107e557600214806107d1575b60e0820180516001600160801b0316610505575b5050604081015161031d906001600160a01b0316610c6a565b60ff16885260600151610338906001600160a01b0316610c6a565b60ff1688526040519860208a019a518b52600160a01b6001900390511660408a015251600160601b6001900381511660608a0152600160a01b6001900360208201511660808a0152600160a01b6001900360408201511660a08a0152600160a01b6001900360608201511660c08a0152608081015162ffffff1660e08a015260a081015160020b6101008a015260c081015160020b6101208a0152600160801b6001900360e0820151166101408a01526101008101516101608a01526101208101516101808a0152600160801b60019003610140820151166101a08a0152600160801b60019003610160820151166101c08a015261018001516101e0890152600160a01b600190039051166102008801525162ffffff166102208701525160020b61024086015251600160a01b60019003815116610260860152602081015160020b610280860152604081015161ffff166102a0860152606081015161ffff166102c0860152608081015161ffff166102e086015260a081015163ffffffff1661030086015260c001511515610320850152600160801b600190039051166103408401525160ff166103608301525160ff1661038082015261038081526105016103a082610ae3565b5190fd5b60018060a01b038551169160a084015160020b60c085015160020b60208b51015160020b925f146107035760405163f30dba9360e01b8152600481018390529461014086602481845afa80156106ca575f965f916106d5575b5095916040519463f30dba9360e01b865281600487015261014086602481865afa80156106ca575f965f9161068c575b5095945b81121561062957505050039203906105dd905b51610100850151610120860151946001600160801b0392831692916105cb910383610c88565b16936001600160801b03930390610c88565b6101408401805191909216926001600160801b03916105fe91908316610b1a565b1690526101608201805190916001600160801b039161061f91908316610b1a565b1690525f80610304565b949694929392126106425750039203906105dd906105a5565b949163f305839960e01b5f5260205f600481895afa156106885760045f60209381938251030397634614131960e01b82525afa15610688576105dd915f510303916105a5565b5f80fd5b90506106b19196506101403d81116106c3575b6106a98183610ae3565b810190610bfa565b5050505050989350915050955f61058e565b503d61069f565b6040513d5f823e3d90fd5b90506106f19196506101403d81116106c3576106a98183610ae3565b5050505050989350915050955f61055e565b60405163f30dba9360e01b8152600481018390529461010086602481845afa80156106ca575f965f916107a5575b5095916040519463f30dba9360e01b865281600487015261010086602481865afa80156106ca575f965f91610769575b509594610592565b905061078e9196506101003d811161079e575b6107868183610ae3565b810190610b95565b505050509792509050955f610761565b503d61077c565b90506107c19196506101003d811161079e576107868183610ae3565b505050509792509050955f610731565b5f60a088510152600160c0885101526102f0565b634e487b7160e01b5f52602160045260245ffd5b90506020813d60201161082b575b8161081460209383610ae3565b810103126106885761082590610b06565b5f610249565b3d9150610807565b90506020813d60201161086b575b8161084e60209383610ae3565b8101031261068857602061086461022e92610b06565b91506101e4565b3d9150610841565b5f9150600183036109a057602060049162ffffff60808701511689526040519283809263c45a015560e01b82525afa9081156106ca575f91610960575b50604084810151606086015189519251630b4c774160e11b81526001600160a01b0392831660048201529116602482015262ffffff90911660448201529060209082908180606481015b03916001600160a01b03165afa9081156106ca575f91610926575b506001600160a01b03168552610256565b90506020813d602011610958575b8161094160209383610ae3565b810103126106885761095290610b06565b5f610915565b3d9150610934565b90506020813d602011610998575b8161097b60209383610ae3565b810103126106885760206109916108fa92610b06565b91506108b0565b3d915061096e565b5f9150600283146109b2575b50610256565b602060049162ffffff60808701511660020b8a526040519283809263c45a015560e01b82525afa9081156106ca575f91610a8d575b5060408481015160608601518a5192516328af8d0b60e01b81526001600160a01b039283166004820152908216602482015260029290920b6044830152909160209183916064918391165afa9081156106ca575f91610a53575b506001600160a01b031685525f6109ac565b90506020813d602011610a85575b81610a6e60209383610ae3565b8101031261068857610a7f90610b06565b5f610a41565b3d9150610a61565b90506020813d602011610abf575b81610aa860209383610ae3565b8101031261068857610ab990610b06565b5f6109e7565b3d9150610a9b565b3d5f803e3d5ffd5b634e487b7160e01b5f52604160045260245ffd5b601f909101601f19168101906001600160401b03821190821017610acf57604052565b51906001600160a01b038216820361068857565b6001600160801b039182169082160191908211610b3357565b634e487b7160e01b5f52601160045260245ffd5b51906001600160801b038216820361068857565b519081600f0b820361068857565b51908160060b820361068857565b519063ffffffff8216820361068857565b5190811515820361068857565b91908261010091031261068857610bab82610b47565b91610bb860208201610b5b565b91604082015191606081015191610bd160808301610b69565b91610bde60a08201610b06565b91610bf760e0610bf060c08501610b77565b9301610b88565b90565b91908261014091031261068857610c1082610b47565b91610c1d60208201610b5b565b91610c2a60408301610b5b565b9160608101519160808201519160a081015191610c4960c08301610b69565b91610c5660e08201610b06565b91610bf7610120610bf06101008501610b77565b6020600481809360125f5263313ce56760e01b82525afa60051b5190565b81810291905f198282099183831084018084039314610cd357600160801b831015610cc657600160801b91099182810360801c9211900360801b1790565b63ae47f7025f526004601cfd5b50505060801c9056fe","linkReferences":{}},"deployedBytecode":{"object":"0x6080806040526004361015610012575f80fd5b5f3560e01c63f9dc72cc14610025575f80fd5b60607ffffffffffffffffffffffffffffffffffffffffffffffffffffffffffffffffc3601126108d95760043560048110156108d9576024359073ffffffffffffffffffffffffffffffffffffffff8216908183036108d95760443591610140850185811067ffffffffffffffff821117610d67576040525f8552602085015f8152604086016040516101a0810181811067ffffffffffffffff821117610d67576040525f81525f60208201525f60408201525f60608201525f60808201525f60a08201525f60c08201525f60e08201525f6101008201525f6101208201525f6101408201525f6101608201525f6101808201528152606087015f815260808801915f835260a08901935f855260c08a019560405160e0810181811067ffffffffffffffff821117610d67576040525f81525f60208201525f60408201525f60608201525f60808201525f60a08201525f60c0820152875260e08b01975f89526101008c01995f8b526101208d019b5f8d527f6352211e000000000000000000000000000000000000000000000000000000005f528160045260205f602481875afa15610d5f576101809073ffffffffffffffffffffffffffffffffffffffff5f5116865260245f8851927f99fbab88000000000000000000000000000000000000000000000000000000008252856004525afa508c528351915f9082610ae057602060049162ffffff6080870151168a52604051928380927fc45a01550000000000000000000000000000000000000000000000000000000082525afa90811561091b576102ec916020915f91610ac3575b5060408681015160608801518c5192517f1698ee8200000000000000000000000000000000000000000000000000000000815273ffffffffffffffffffffffffffffffffffffffff9283166004820152908216602482015262ffffff90921660448301529093849291839182906064820190565b0392165afa801561091b5773ffffffffffffffffffffffffffffffffffffffff915f91610a94575b501686525b73ffffffffffffffffffffffffffffffffffffffff8651167fddca3f43000000000000000000000000000000000000000000000000000000005f5260205f600481845afa156108d95762ffffff5f511688527fd0c93a7c000000000000000000000000000000000000000000000000000000005f5260205f600481845afa156108d9575f5160020b89527f1a686502000000000000000000000000000000000000000000000000000000005f5260205f600481845afa156108d95760e0906fffffffffffffffffffffffffffffffff5f51168c5260045f8c51927f3850c7bd0000000000000000000000000000000000000000000000000000000082525afa156108d957610a675760021480610a53575b60e08201906fffffffffffffffffffffffffffffffff8251166106b7575b5050604081015173ffffffffffffffffffffffffffffffffffffffff1661046e90610fad565b60ff1689526060015173ffffffffffffffffffffffffffffffffffffffff1661049690610fad565b60ff16895260405199518a525173ffffffffffffffffffffffffffffffffffffffff1660208a01525180516bffffffffffffffffffffffff1660408a0152602081015173ffffffffffffffffffffffffffffffffffffffff1660608a0152604081015173ffffffffffffffffffffffffffffffffffffffff1660808a0152606081015173ffffffffffffffffffffffffffffffffffffffff1660a08a0152608081015162ffffff1660c08a015260a081015160020b60e08a015260c081015160020b6101008a015260e08101516fffffffffffffffffffffffffffffffff166101208a01526101008101516101408a01526101208101516101608a01526101408101516fffffffffffffffffffffffffffffffff166101808a01526101608101516fffffffffffffffffffffffffffffffff166101a08a015261018001516101c08901525173ffffffffffffffffffffffffffffffffffffffff166101e08801525162ffffff166102008701525160020b61022086015251805173ffffffffffffffffffffffffffffffffffffffff16610240860152602081015160020b610260860152604081015161ffff16610280860152606081015161ffff166102a0860152608081015161ffff166102c086015260a081015163ffffffff166102e086015260c001511515610300850152516fffffffffffffffffffffffffffffffff166103208401525160ff166103408301525160ff1661036082015261038090f35b73ffffffffffffffffffffffffffffffffffffffff8651169060a084015160020b60c085015160020b60208c51015160020b925f1461095457604051937ff30dba9300000000000000000000000000000000000000000000000000000000855282600486015261014085602481845afa801561091b575f955f91610926575b509491604051947ff30dba9300000000000000000000000000000000000000000000000000000000865281600487015261014086602481865afa801561091b575f965f916108dd575b5095945b811215610824575050506107cf926fffffffffffffffffffffffffffffffff94928592039203945b511690836107c6610100880151610120890151930384610fe4565b16940390610fe4565b16906fffffffffffffffffffffffffffffffff6107f461014085019282845116610e01565b1690526fffffffffffffffffffffffffffffffff61081a61016084019282845116610e01565b1690525f80610448565b9293921261084f57506fffffffffffffffffffffffffffffffff936107cf93928592039203946107ab565b917ff3058399000000000000000000000000000000000000000000000000000000005f5260205f600481865afa156108d95760045f602093819382510303947f461413190000000000000000000000000000000000000000000000000000000082525afa156108d9576fffffffffffffffffffffffffffffffff6107cf9281945f510303946107ab565b5f80fd5b90506109029196506101403d8111610914575b6108fa8183610d94565b810190610f3d565b5050505050989350915050955f61077f565b503d6108f0565b6040513d5f823e3d90fd5b90506109429195506101403d8111610914576108fa8183610d94565b5050505050979350915050945f610736565b604051937ff30dba9300000000000000000000000000000000000000000000000000000000855282600486015261010085602481845afa801561091b575f955f91610a27575b509491604051947ff30dba9300000000000000000000000000000000000000000000000000000000865281600487015261010086602481865afa801561091b575f965f916109eb575b509594610783565b9050610a109196506101003d8111610a20575b610a088183610d94565b810190610ed8565b505050509792509050955f6109e3565b503d6109fe565b9050610a439195506101003d8111610a2057610a088183610d94565b505050509692509050945f61099a565b5f60a089510152600160c08951015261042a565b7f4e487b71000000000000000000000000000000000000000000000000000000005f52602160045260245ffd5b610ab6915060203d602011610abc575b610aae8183610d94565b810190610dd5565b5f610314565b503d610aa4565b610ada9150823d8411610abc57610aae8183610d94565b5f610278565b5f915060018303610c0057602060049162ffffff6080870151168a52604051928380927fc45a01550000000000000000000000000000000000000000000000000000000082525afa90811561091b57610bb0916020915f91610ac3575060408681015160608801518c5192517f1698ee8200000000000000000000000000000000000000000000000000000000815273ffffffffffffffffffffffffffffffffffffffff9283166004820152908216602482015262ffffff90921660448301529093849291839182906064820190565b0392165afa801561091b5773ffffffffffffffffffffffffffffffffffffffff915f91610be1575b50168652610319565b610bfa915060203d602011610abc57610aae8183610d94565b5f610bd8565b5f915060028314610c12575b50610319565b602060049162ffffff60808701511660020b8b52604051928380927fc45a01550000000000000000000000000000000000000000000000000000000082525afa90811561091b575f91610d40575b50602073ffffffffffffffffffffffffffffffffffffffff604086015116606473ffffffffffffffffffffffffffffffffffffffff6060880151169173ffffffffffffffffffffffffffffffffffffffff8d5160020b9560405196879586947f28af8d0b000000000000000000000000000000000000000000000000000000008652600486015260248501526044840152165afa801561091b5773ffffffffffffffffffffffffffffffffffffffff915f91610d21575b501686525f610c0c565b610d3a915060203d602011610abc57610aae8183610d94565b5f610d17565b610d59915060203d602011610abc57610aae8183610d94565b5f610c60565b3d5f803e3d5ffd5b7f4e487b71000000000000000000000000000000000000000000000000000000005f52604160045260245ffd5b90601f7fffffffffffffffffffffffffffffffffffffffffffffffffffffffffffffffe0910116810190811067ffffffffffffffff821117610d6757604052565b908160209103126108d9575173ffffffffffffffffffffffffffffffffffffffff811681036108d95790565b906fffffffffffffffffffffffffffffffff809116911601906fffffffffffffffffffffffffffffffff8211610e3357565b7f4e487b71000000000000000000000000000000000000000000000000000000005f52601160045260245ffd5b51906fffffffffffffffffffffffffffffffff821682036108d957565b519081600f0b82036108d957565b51908160060b82036108d957565b519073ffffffffffffffffffffffffffffffffffffffff821682036108d957565b519063ffffffff821682036108d957565b519081151582036108d957565b9190826101009103126108d957610eee82610e60565b91610efb60208201610e7d565b91604082015191606081015191610f1460808301610e8b565b91610f2160a08201610e99565b91610f3a60e0610f3360c08501610eba565b9301610ecb565b90565b9190826101409103126108d957610f5382610e60565b91610f6060208201610e7d565b91610f6d60408301610e7d565b9160608101519160808201519160a081015191610f8c60c08301610e8b565b91610f9960e08201610e99565b91610f3a610120610f336101008501610eba565b6020600481809360125f527f313ce5670000000000000000000000000000000000000000000000000000000082525afa60051b5190565b90808202917fffffffffffffffffffffffffffffffffffffffffffffffffffffffffffffffff82820991838310840180840393146110685782700100000000000000000000000000000000111561105b5770010000000000000000000000000000000091099182810360801c9211900360801b1790565b63ae47f7025f526004601cfd5b50505060801c9056fea164736f6c634300081e000a","linkReferences":{}},"methodIdentifiers":{"getPosition(uint8,address,uint256)":"f9dc72cc"},"id":4}